:020000040800F2
:10000000C80E0020810400085502000857020008AD
:100010005B0200085F0200086302000800000000A5
:10002000000000000000000000000000670200085F
:1000300069020008000000006B0200086D02000861
:100040009B0400089B0400089B0400089B04000814
:100050009B0400089B0400089B0400089B04000804
:100060009B0400089B0400089B0400089B040008F4
:100070009B0400089B0400089B0400089B040008E4
:100080009B0400089B0400089B0400089B040008D4
:100090009B0400089B0400089B0400089B040008C4
:1000A0009B0400089B0400089B040008B546000858
:1000B0009B0400089B0400089B0400089B040008A4
:1000C0009B0400089B0400089B0400089B04000894
:1000D0009B040008AD6F0008DB700008597200082F
:1000E0009B0400089B0400089B0400089B04000874
:1000F000B36100089B0400089B0400089B040008EF
:100100009B0400089B040008AB4300089B04000804
:100110006B7400089B040008CF610008A55F00080D
:100120009B0400089B0400089B0400089B04000833
:100130009B0400089B0400089B0400089B04000823
:100140009B0400089B0400089B0400089B04000813
:100150009B0400089B0400089B0400089B04000803
:100160009B0400089B0400089B0400089B040008F3
:100170009B0400089B0400089B0400089B040008E3
:100180009B0400089B040008DFF810D007F0E6FD90
:1001900000480047A1010008AFF30080C80E00200E
:1001A00007F0D2FA07F09EFA2B2389221146292064
:1001B00005F005F846E0012023490870234800684F
:1001C000D0B902F084FA02F0C7FA02F0B7FB02F0ED
:1001D0007FFC02F0D5FC02F0B8FD02F00CFE02F04C
:1001E000CDFE02F023FF02F0B0FD02F0F0FF03F0BD
:1001F000A7F80D20164908601448001D0068D8B9FA
:1002000002F065FA02F0A8FA02F04DFB02F096FB4C
:1002100002F05EFC02F0B4FC02F097FD02F0EBFD90
:1002200002F0ACFE02F002FF02F0D1FF03F088F80A
:100230000D200749086005E000231A4619461846B4
:1002400003F0D7FAB7E700000C000020000242429A
:1002500000000020704700BFFEE700BFFEE700BFC0
:10026000FEE700BFFEE77047704770477047000029
:100270000CB50020019000907648006840F4803072
:100280007449086000BF7348006800F400300090B3
:100290000198401C0190009818B90198B0F5A04F42
:1002A000F1D16C48006800F4003010B101200090DA
:1002B00001E0002000900098012846D165484030B8
:1002C000006840F08050634940310860624800682F
:1002D00040F44040604908605E48083000685D496D
:1002E000083108600846006840F40040086008468D
:1002F000006840F4A05008605848091F0860081FB3
:10030000006840F08070091F086000BF5148006815
:1003100000F000700028F9D040F2057050490860E4
:100320004C480830006820F003004A490831086052
:100330000846006840F00200086000BF45480830E9
:10034000006800F00C000828F8D10CBD10B5454835
:10035000006840F47000434908603E48006840F07F
:1003600001003C49086000203A49083108603948DA
:1003700000683D490840374908603C48091D08604D
:10038000081F006820F48020091F08600020314900
:100390000C310860FFF76CFF4FF000603149803985
:1003A000086010BD70B50020002202230024022145
:1003B000284D08352D6805F00C0020B1042806D022
:1003C000082834D107E02A4D2A4E356033E02A4D03
:1003D000284E35602FE01F4D2D1D2D68C5F380542C
:1003E0001C4D2D1D2D6805F03F0154B1224DB5FB6C
:1003F000F1F5184E361D3668C6F3881605FB06F271
:1004000009E01B4DB5FBF1F5124E361D3668C6F3FB
:10041000881605FB06F20F4D2D1D2D68C5F301450D
:100420006D1C6B00B2FBF3F5124E356003E0104D0E
:10043000104E356000BF00BF064D08352D68C5F36E
:1004400003150E4E705D0B4D2D68C540094E35608D
:1004500070BD0000003802400070004008544007A2
:10046000003C024088ED00E0FFFFF6FE1030002463
:100470000024F4001000002000127A001400002074
:100480000648804706480047FEE7FEE7FEE7FEE72E
:10049000FEE7FEE7FEE7FEE7FEE7FEE74D030008A6
:1004A0008901000832490143324A1160704770B532
:1004B000002100230F22C4781CB32E4C246804F4BE
:1004C000E064C4F5E064C4F30721C1F10404E3B2BD
:1004D0000A4144789C40E1B28478144021430C07DF
:1004E000210E254C05786155047804F01F05012480
:1004F000AC4005786D11AD0005F1E025C5F800416F
:1005000009E0047804F01F050124AC401B4D067877
:10051000761145F8264070BD194A0A400243154B32
:100520001B1F1A60704739B1124A121D126802432C
:10053000104B1B1D1A6006E00E4A121D1268824302
:100540000C4B1B1D1A607047042808D14FF0E021A6
:10055000096941F004014FF0E022116107E04FF01A
:10056000E021096921F004014FF0E0221161704798
:100570000000FA050CED00E000E400E080E100E09E
:1005800080FFFF1F10B504469848844208D101211E
:10059000084600F086FB0021012000F082FB76E097
:1005A0009348844208D10121022000F07AFB002107
:1005B000022000F076FB6AE08E48844208D10121D7
:1005C000042000F06EFB0021042000F06AFB5EE0D6
:1005D0008948844208D10121082000F062FB0021F3
:1005E000082000F05EFB52E08448844208D10121DB
:1005F000102000F056FB0021102000F052FB46E0D6
:100600007F48844208D10121202000F04AFB0021CC
:10061000202000F046FB3AE07A48844208D10121CC
:10062000402000F03EFB0021402000F03AFB2EE08D
:100630007548844208D10121802000F032FB00215E
:10064000802000F02EFB22E07048844208D1012176
:10065000801500F026FB0021A01500F022FB16E01B
:100660006B48844208D10121401500F01AFB00219B
:10067000601500F016FB0AE06648844207D10121AC
:10068000001500F00EFB0021201500F00AFB10BD44
:10069000F0B50A4600210023002400BF3DE00125FB
:1006A00005FA01F3156805EA03049C4234D1056894
:1006B0004F000326BE40B543056015794E00B54096
:1006C0000668354305601579012D02D01579022D94
:1006D00016D185684F000326BE40B5438560557925
:1006E0004E00B540866835438560456801268E40DA
:1006F000B5434560456896798E40B6B2354345604E
:10070000C5684F000326BE40B543C560D5794E008D
:10071000B540C6683543C560491C1029BFD3F0BD3C
:100720004FF6FF7101600021017141718171C1714A
:10073000704708B54FF480320092009A0A43009245
:10074000009AC261C161009AC261C2690092C26925
:10075000009208BD0246002013690B400BB1012036
:1007600000E0002070470146086980B270470246E9
:10077000002053690B400BB1012000E000207047BE
:100780000146486980B270470183704741837047D2
:100790000AB1018300E041837047416170474269BB
:1007A0004A4042617047F0B5002300244D07ED0E2A
:1007B00002FA05F3CE1000F1200555F826504E0739
:1007C000F70E0F26BE40B543CF1000F1200646F8C5
:1007D0002750CE1000F1200555F8265045EA0304B5
:1007E000CE1000F1200545F82640F0BD0000024083
:1007F0000004024000080240000C024000100240C9
:100800000014024000180240001C02400020024078
:100810000024024000280240F948006840F001002E
:10082000F74908600020F64908310860F44800687C
:10083000F4490840F2490860F348091D0860F3488C
:10084000EF4984310860F0481038091D0860EC4811
:10085000006820F48020EA4908600020E8490C3153
:100860000860E7498C31086070470021E44A921C17
:10087000117011460870704710B501460022002320
:1008800000204A11012A02D1DD4C236808E0022A27
:1008900003D1DB4C7034236802E0D94C74342368F4
:1008A00001F01F02012494401C400CB1012000E023
:1008B000002010BD38B5002000900024002500BFA6
:1008C0003120FFF7D9FF05460098401C00900098A2
:1008D000B0F5A04F01D0002DF2D03120FFF7CCFFB2
:1008E00008B1012400E00024204638BD0146002064
:1008F000C34A106820F0F80040EAC1001060704759
:10090000C349086070470021BD4A703211701170F0
:10091000012802D004280AD104E00121B84A70322B
:10092000117005E00521B64A7032117000E000BF79
:1009300000BF7047B7490860704770B5049C41EA32
:1009400082150126C6EB530645EA0645054345EAEE
:100950000465AB4E361D356070BDAD490866704705
:10096000820142EA0172A64B84331A607047A8499B
:100970008866704710B5830143EA016343EA027356
:100980009F4C8834236010BDA14908677047A04977
:10099000C864704702460020994B0833186820F05D
:1009A000EC6042EA01031843954B08331860704726
:1009B00002460020924B0833186820F0784042EA43
:1009C000010318438E4B083318607047014600201E
:1009D0008B4A0832106820F003000843106070470B
:1009E00087480830006800F00C007047014600207E
:1009F000834A0832106820F0F00008431060704706
:100A0000014600207E4A0832106820F4E050084376
:100A10001060704701460020794A0832106820F4BF
:100A2000604040EAC10010607047F0B5002100222C
:100A30000024022500260223714F08373F6807F083
:100A40000C0121B1042905D0082937D105E0724FE6
:100A5000076036E0714F076033E0694F3F1D3F6824
:100A6000C7F38056664F3F1D3F6807F03F036EB1E6
:100A70006A4FB7FBF3F7DFF888C10CF1040CDCF820
:100A800000C0CCF3881C07FB0CF40CE0624FB7FBF2
:100A9000F3F7DFF86CC10CF1040CDCF800C0CCF308
:100AA000881C07FB0CF4564F3F1D3F68C7F30147F6
:100AB0007F1C7D00B4FBF5F7076002E0564F07602E
:100AC00000BF00BF4E4F08373F6807F0F00109092B
:100AD000534F7A5C0768D7404760494F08373F68F3
:100AE00007F4E051890A4E4F7A5C4768D740876027
:100AF000434F08373F6807F46041490B484F7A5C21
:100B00004768D740C760F0BD002100F44072B2F5DD
:100B1000407F0AD13A4A0832116821F4F811414A5B
:100B200002401143364A08321160354A7032126869
:100B3000C0F30B031A43324B70331A6070473549C8
:100B40004439086070473349403908607047364976
:100B50000860704701460020294A8C32106820F056
:100B60001F004A1E1043264A8C321060704701460F
:100B70000020234A8C32106820F4F8504A1E40EAC4
:100B800002201F4A8C3210607047014600201C4A28
:100B90008C32106820F44010084310607047014602
:100BA0000020174A8C32106820F44000084310607F
:100BB000704701460020124A8C32106820F4403001
:100BC00008431060704719490860704739B10C4AF2
:100BD0003032126802430A4B30331A6006E0084A8A
:100BE000303212688243064B30331A607047F9B1D5
:100BF000034A343212680243014B34331A601CE05A
:100C000000380240FFFFF6EA1030002400300020D8
:100C100000004742800E47420024F40000127A0090
:100C200024000020FFFCFF0F5C014742E011474217
:100C30008F4A126882438E4B1A60704739B18C4AD2
:100C4000121D126802438A4B1B1D1A6006E0884A77
:100C5000121D12688243864B1B1D1A60704739B102
:100C6000834A0C3212680243814B0C331A6006E04F
:100C70007F4A0C32126882437D4B0C331A607047F6
:100C800039B17B4A103212680243794B10331A6033
:100C900006E0774A103212688243754B10331A60AF
:100CA000704739B1724A243A12680243704B243BB0
:100CB0001A6006E06E4A243A126882436C4B243B69
:100CC0001A60704739B16A4A203A12680243684B89
:100CD000203B1A6006E0664A203A12688243644B61
:100CE000203B1A60704739B1614A1C3A12680243CE
:100CF0005F4B1C3B1A6006E05D4A1C3A1268824357
:100D00005B4B1C3B1A60704739B1594A143A126860
:100D10000243574B143B1A6006E0554A143A1268D6
:100D20008243534B143B1A60704739B1504A103A12
:100D3000126802434E4B103B1A6006E04C4A103AD0
:100D4000126882434A4B103B1A60704739B1484AD7
:100D50001C3212680243464B1C331A6006E0444AB8
:100D60001C3212688243424B1C331A60704739B1FF
:100D70003F4A2032126802433D4B20331A6006E09E
:100D80003B4A203212688243394B20331A60704745
:100D900039B1374A243212680243354B24331A6082
:100DA00006E0334A243212688243314B24331A60FE
:100DB000704739B12E4A2C32126802432C4B2C3327
:100DC0001A6006E02A4A2C3212688243284B2C33E0
:100DD0001A60704739B1264A303212680243244BF8
:100DE00030331A6006E0224A303212688243204BC8
:100DF00030331A607047012808D11D493C31096819
:100E000041F008011A4A3C32116007E018493C31B0
:100E1000096821F00801164A3C321160704739B167
:100E2000134A273A12780243114B273B1A7006E007
:100E30000F4A273A127882430D4B273B1A707047AE
:100E40000B484030006840F080700949403108602C
:100E5000704701460020064A283A12680A400AB143
:100E6000012000E0002070470149263908707047D2
:100E70003438024010B50446FE48844208D10121AE
:100E80000846FFF752FF00210120FFF74EFF9DE0CB
:100E9000B4F1804F08D101210846FFF735FF00214A
:100EA0000120FFF731FF91E0F348844208D101218E
:100EB0000220FFF729FF00210220FFF725FF85E030
:100EC000EE48844208D101210420FFF71DFF0021D4
:100ED0000420FFF719FF79E0E948844208D1012195
:100EE0000820FFF711FF00210820FFF70DFF6DE03C
:100EF000E448844208D101211020FFF705FF0021BA
:100F00001020FFF701FF61E0DF48844208D1012192
:100F10002020FFF7F9FE00212020FFF7F5FE55E025
:100F2000DA48844208D101210220FFF7FEFE0021A9
:100F30000220FFF7FAFE49E0D548844209D1012199
:100F40000804FFF7F2FE00214FF48030FFF7EDFEBA
:100F50003CE0D048844209D101214804FFF7E5FE76
:100F600000214FF40030FFF7E0FE2FE0CA48844232
:100F700009D101218804FFF7D8FE00214FF4802019
:100F8000FFF7D3FE22E0C548844208D1012140206A
:100F9000FFF7BAFE00214020FFF7B6FE16E0C0487A
:100FA000844208D101218020FFF7AEFE002180207D
:100FB000FFF7AAFE0AE0BB48844207D10121801551
:100FC000FFF7A2FE0021A015FFF79EFE10BD002234
:100FD0000288A84B98420ED0AC4B98420BD0B0F18F
:100FE000804F08D0A44B984205D0A44B984202D021
:100FF000A34B984204D14FF68F731A404B881A4383
:10100000A04B984207D0A04B984204D04FF6FF4324
:101010001A400B891A4302804B68C3620B88038510
:10102000944B984202D0994B984201D18B7A038617
:101030000123838270474FF0FF314160002101801E
:1010400001814180817270470185828270470A4622
:10105000002101884FF68F731940114301807047BA
:1010600041627047C16270470146486A7047014655
:10107000088D704721B1028842F00202028004E02C
:1010800002884FF6FD731A400280704721B1028832
:1010900042F00402028004E002884FF6FB731A401B
:1010A0000280704721B1028842F08002028004E091
:1010B00002884FF67F731A400280704702884FF60D
:1010C000F7731A40028002880A4302807047028840
:1010D0004FF6FF431A40028002880A43028070479D
:1010E00021B1028842F00102028004E002884FF63A
:1010F000FE731A400280704770B50024002200235E
:10110000058C4FF6FE7635400584028C8388048B6F
:101110004FF68F752C40B51E2C400D882C43751E44
:101120002A408D892A434D882A43524DA84202D035
:10113000564DA84213D14FF6F7752A40CD892A4360
:101140004FF6FB752A408D882A434FF6FF652B40EA
:101150004FF6FF552B400D8A2B434D8A2B4383803E
:1011600004838D684563028470BD70B5002400223D
:101170000023058C4FF6EF7635400584028C83887A
:10118000048B48F6FF752C404FF6FF452C400D8828
:101190004FF6FF7606EA05252C434FF6DF752A4009
:1011A0008D8906EA05152A434D8806EA05152A4366
:1011B000304DA84202D0354DA8421DD14FF67F7563
:1011C0002A40CD894FF6FF7606EA05152A434FF6E9
:1011D000BF752A408D8806EA05152A434FF6FF356C
:1011E0002B404FF2FF752B400D8A06EA85052B43F5
:1011F0004D8A06EA85052B43838004838D688563C9
:10120000028470BD70B5002400220023058C4FF6C7
:10121000FF6635400584028C8388848B4FF68F757A
:101220002C404FF6FC752C400D882C434FF6FF5593
:101230002A408D894FF6FF7606EA05252A434D8818
:1012400006EA05252A430B4DA84202D00F4DA842BD
:1012500038D14FF2FF752A40CD894FF6FF7606EA66
:1012600005252A434FF6FF352A408D8806EA0525D5
:101270002A4319E00000014000040040000800403B
:10128000000C004000100040001400400004014029
:101290000040014000440140004801400018004067
:1012A000001C0040002000404EF6FF752B404DF61C
:1012B000FF752B400D8A06EA05152B434D8A06EA79
:1012C00005152B43838084838D68C563028470BDBC
:1012D00070B5002200230024058C4EF6FF763540C1
:1012E0000584038C8488828B48F6FF752A404FF66C
:1012F000FF452A400D884FF6FF7606EA05252A436A
:101300004DF6FF752B408D8906EA05352B434D8838
:1013100006EA05352B43FE4DA84202D0FD4DA842FA
:1013200008D14BF6FF752C400D8A4FF6FF7606EA82
:1013300085152C43848082838D680564038470BD89
:10134000002101804180818081608181C181018291
:101350004182704770B503460020002418461830BB
:1013600001258D40ACB21D8CA5431D8409B108290F
:101370000AD100EB610005684FF68F7635400560B5
:101380000568154305600FE00D1FC5F34E052844A1
:10139000056848F6FF763540056005684FF6FF762C
:1013A00006EA02263543056070BD416370478163DC
:1013B0007047C1637047016470470A460021018B82
:1013C0004FF68F7319401143018370470A4600217D
:1013D000018B48F6FF7319404FF6FF7303EA0223AF
:1013E0001943018370470A460021818B4FF68F73A2
:1013F00019401143818370470A460021818B48F6CA
:10140000FF7319404FF6FF7303EA022319438183E8
:1014100070470A460021018B4FF6F77319401143BC
:10142000018370470A460021018B4FF2FF73194078
:101430004FF6FF7303EA02231943018370470A46FC
:101440000021818B4FF6F773194011438183704758
:101450000A460021818B4FF2FF7319404FF6FF734C
:1014600003EA02231943818370470A460021018B56
:101470004FF6FB7319401143018370470A46002160
:10148000018B4FF6FF3319404FF6FF7303EA022337
:101490001943018370470A460021818B4FF6FB7385
:1014A00019401143818370470A460021818B4FF612
:1014B000FF3319404FF6FF7303EA02231943818378
:1014C00070470A460021018B4FF67F731940114384
:1014D000018370470A460021018BC1F30E014FF6CC
:1014E000FF7303EA02231943018370470A46002170
:1014F000818B4FF67F7319401143818370470A46F1
:101500000021818BC1F30E014FF6FF7303EA022322
:101510001943818370470A460021018C4FF6FD7301
:1015200019401143018470470A460021018C4FF68F
:10153000F77319401143018470470A460021018C5A
:101540004FF6DF7319404FF6FF7303EA0213194396
:10155000018470470A460021018C4FF67F731940C1
:101560004FF6FF7303EA02131943018470470A46DA
:101570000021018C4FF6FF5319404FF6FF7303EA29
:1015800002231943018470470A460021018C4FF25F
:10159000FF7319404FF6FF7303EA022319430184D6
:1015A00070470A460021018C4DF6FF7319404FF633
:1015B000FF7303EA023319430184704730B50023F7
:1015C00001248C40A3B2048C9C430484048C02FA52
:1015D00001F5ADB22C43048430BD30B500230424A2
:1015E0008C40A3B2048C9C430484048C02FA01F561
:1015F000ADB22C43048430BD828B4FF2FF331A40CE
:101600008283828B4FF6FF7303EA01231A4382839E
:101610007047F0B50C461546002100220026078CC5
:101620004EF6FF7C07EA0C070784818B028C4FF68D
:10163000FF7707EA043640F6FF4739404FF6FF7759
:1016400007EA052739434FF6FF7707EA033739439F
:1016500045F6FF773A4046F480573A438183028447
:10166000F0BD828B4FF6F3731A408283828B0A435C
:1016700082837047F0B50C461546002100220026F3
:10168000078C4FF6FF6C07EA0C070784818B028CEE
:101690004FF6FF7707EA04264FF60C7739404FF6EE
:1016A000FF7707EA03172F4339434FF2FF573A40BA
:1016B00046F480773A4381830284F0BD028B4FF277
:1016C000FF331A400283028B4FF6FF7303EA0123B4
:1016D0001A4302837047F0B50C46154600210022DC
:1016E0000026078C4FF6EF7C07EA0C070784018B76
:1016F000028C4FF6FF7707EA041640F6FF473940A1
:101700004FF6FF7707EA033739434FF6FF7703E0D9
:10171000000001400004014007EA052739434FF665
:101720005F773A4046F010073A4301830284F0BDE8
:10173000028B4FF6F3731A400283028B0A43028333
:101740007047F0B50C46154600210022068C4FF676
:10175000FE773E400684018B028C4FF60C763140BA
:101760007E1C06EA03162E4331434FF6F5763240CF
:1017700044F00106324301830284F0BD70B5054692
:101780000C46208850B92389A28861882846FFF733
:10179000D8FFE1882846FFF7CBFF25E02088042802
:1017A0000AD12389A28861882846FFF794FFE1883F
:1017B0002846FFF783FF17E0208808280AD12389ED
:1017C000A28861882846FFF755FFE1882846FFF781
:1017D00048FF09E02389A28861882846FFF719FF9E
:1017E000E1882846FFF708FF70BD00210180418095
:1017F000012181800021C180018170472DE9F041E4
:1018000005460C4600260127608808B9022600E03C
:101810000026A088012801D1022700E001272088A6
:10182000A0B92389A28861882846FFF78AFFE1884A
:101830002846FFF77DFF23893A4631462846FFF7C1
:101840004AFFE1882846FFF739FF13E02389A28881
:1018500061882846FFF73FFFE1882846FFF72EFF03
:1018600023893A4631462846FFF76BFFE188284630
:10187000FFF75EFFBDE8F0810146486B7047014607
:10188000886B70470146C86B70470146086C70470B
:101890000A884B881A438B881A43CB881A430B89D2
:1018A0001A434B891A438B891A43A0F84420704786
:1018B0000021018041808180C1800181418181813D
:1018C000704731B1B0F8442042F40042A0F84420FF
:1018D00005E0B0F84420C2F30E02A0F8442070479F
:1018E00021B1828842F00402828004E082884FF6AF
:1018F000FB731A408280704721B1828842F0010256
:10190000828004E082884FF6FE731A40828070471E
:101910001AB183890B43838102E083898B438381DE
:1019200070478182704702460020138A0B400BB13A
:10193000012000E000207047CA430282704730B5A2
:101940000246002000230024158A05EA0103958938
:1019500005EA010413B10CB1012000E0002030BD04
:10196000CA430282704741EA0203A0F84830704738
:101970001AB183890B43838102E083898B4383817E
:10198000704721B1828842F00802828004E0828898
:101990004FF6F7731A408280704701894FF6F8724C
:1019A0001140018170470A46002101894FF68F736B
:1019B000194011430181704730B504460D46294650
:1019C0002046FFF7F0FF208940F00700208130BD5E
:1019D0002DE9F04104460D4616461F46602D06D1FE
:1019E0003B46012231462046FFF775FE05E03B46A7
:1019F000012231462046FFF7A4FE29462046FFF784
:101A0000D2FF208940F007002081BDE8F08130B589
:101A10000C4600210189C9B24FF6FF7505EA03257E
:101A2000154325432943018130BD2DE9F041054689
:101A30000E4617469846002443463A463146284605
:101A4000FFF7E5FF2C894FF6F870044044F00704D7
:101A50004FF68F70044044F070042C81BDE8F08193
:101A6000F0B504460D4616461F463B46324629460B
:101A70002046FFF7CCFF208940F480402081F0BD54
:101A800082884FF68F731A40828082880A43828050
:101A9000704702894FF6F8731A40028102890A439F
:101AA0000281704702894FF67F731A4002810289D2
:101AB0000A4302817047F0B50C4615461E460021C8
:101AC000002200230189028B038C4FF6F8773940FE
:101AD00021434FF6FC473A4040F201173A434FF694
:101AE000DD773B404FF6FF7707EA06172F433B436E
:101AF000018102830384F0BD21B1828842F080021B
:101B0000828004E082884FF67F731A40828070479B
:101B1000A0F850107047000010B50446FA488442FF
:101B200008D101211020FFF700F900211020FFF754
:101B3000FCF857E0F548844209D101214804FFF739
:101B4000E3F800214FF40030FFF7DEF84AE0F048F8
:101B5000844209D101218804FFF7D6F800214FF40F
:101B60008020FFF7D1F83DE0EA48844209D1012105
:101B7000C804FFF7C9F800214FF40020FFF7C4F8AC
:101B800030E0E548844209D101210805FFF7BCF89F
:101B900000214FF48010FFF7B7F823E0DF488442BC
:101BA00008D101212020FFF7C0F800212020FFF7F5
:101BB000BCF817E0DA48844209D101218807FFF711
:101BC000A3F800214FF08040FFF79EF80AE0D548C7
:101BD000844207D101214005FFF796F800216005F6
:101BE000FFF792F810BD2DE9FF4705460E46002489
:101BF000A14600BFA046B08900B100BF2C8A24F4E2
:101C00004054F08804432C82AC8941F20C60844338
:101C1000B08831890843718908430443AC81AC8A98
:101C200024F44074B0890443AC826846FEF7FDFE9C
:101C3000B548854202D0B948854202D1DDF80C9002
:101C400001E0DDF80890A88900F4004040B109EBFC
:101C5000C90000EB091031684900B0FBF1F707E05B
:101C600009EBC90000EB091031688900B0FBF1F7FE
:101C70006420B7FBF0F004012009642101FB107817
:101C8000A88900F4004040B1322000EBC800B0FB4E
:101C9000F1F000F00700044308E0322000EB0810E8
:101CA0006421B0FBF1F000F00F0004432C81BDE88B
:101CB000FF874FF41651016000218180C1800181AE
:101CC0000C21418100218181704710B5024600201E
:101CD000108A20F470600B884C8823438C8823433F
:101CE000CC8823431843108210BD0021018041801D
:101CF0008180C180704721B1828942F40052828183
:101D000004E082894DF6FF731A4082817047028B8E
:101D100002F47F420283028B0A430283704721B19F
:101D2000828942F40042828103E08289C2F30E027A
:101D30008281704721B1828A42F40062828204E08B
:101D4000828A4FF2FF731A4082827047C1F3080201
:101D50008280704701468888C0F308007047028A75
:101D60004FF6F0731A400282028A0A4302827047D9
:101D700021B1828942F00202828104E082894FF619
:101D8000FD731A408281704782894FF2FF731A40B7
:101D9000828182890A4382817047028A4FF6DF730B
:101DA0001A400282028A0A430282704721B1028AE3
:101DB00042F48042028204E0028A4BF6FF731A402A
:101DC00002827047818941F001018181704721B110
:101DD000828A42F00802828204E0828A4FF6F77318
:101DE0001A4082827047028BD2B20283028B42EA8F
:101DF00001220283704721B1828A42F0200282824E
:101E000004E0828A4FF6DF731A408282704721B164
:101E1000828A42F01002828204E0828A4FF6EF73D7
:101E20001A4082827047828A4FF6FB731A40828280
:101E3000828A0A438282704721B1828A42F002027A
:101E4000828204E0828A4FF6FD731A4082827047D4
:101E50001AB1838A0B43838202E0838A8B43838295
:101E60007047F0B50346002400260025002040F608
:101E70006A17B94200D100BF1846C1F3421401F0FD
:101E80001F06012707FA06F5012C01D10C3004E0EA
:101E9000022C01D1103000E014301AB107682F4332
:101EA000076002E00768AF430760F0BD024600200C
:101EB000B1F5007F00D100BF13880B400BB10120AA
:101EC00000E00020704701F40072B2F5007F00D1FD
:101ED00000BFCA430280704770B502460024002349
:101EE0000025002040F66A16B14200D100BFC1F3C0
:101EF000421501F01F03012606FA03F3012D13D149
:101F00009689334017E00000001001400044004073
:101F100000480040004C00400050004000140140C8
:101F200000780040007C0040022D02D1168A334028
:101F300001E0968A33400C12012606FA04F4168852
:101F4000344013B10CB1012000E0002070BD10B589
:101F50000022002340F66A14A14200D100BF0A12F9
:101F600001249440A3B2DC43048010BD10B50446A4
:101F70006FF00400FEF7E8FAE11704EB5171C1F3CA
:101F8000C701394A11701046007800EB4001C1EBDF
:101F9000C0104FF6FF7101EAC0003449088010BD3F
:101FA0000146314A12784A434FF0E0235A61002239
:101FB0009A611A46126942F001021A6100BF4FF09D
:101FC000E022106900F001021AB100F48032002A08
:101FD000F5D04FF0E022126922F001024FF0E02329
:101FE0001A6100229A6170470146204A12884A43CA
:101FF0004FF0E0235A6100229A611A46126942F0BA
:1020000001021A6100BF4FF0E022106900F00102E6
:102010001AB100F48032002AF5D04FF0E0221269A4
:1020200022F001024FF0E0231A6100229A6170470A
:1020300070B504464FF4077094FBF0F0C6B24FF44D
:10204000077094FBF0F100FB114085B205E04FF4FE
:102050000770FFF7C9FF701EC6B2002EF7D115B189
:102060002846FFF7C1FF70BD340000203600002075
:102070001CB501210820FEF7A9FD80200090012059
:102080008DF8040000208DF8060003208DF805006F
:1020900002208DF8070069460148FEF7F9FA1CBDD9
:1020A000000C024070B52DED028BB0EE408AF0EED0
:1020B000608AB0EE482ADFEDFE1A9FEDFE1ADFEDD2
:1020C000FD0AB2EE040A01F057FABDEEC00A10EEA6
:1020D000104AB0EE682ADFEDF61A9FEDF61ADFED32
:1020E000F50AB2EE040A01F047FABDEEC00A10EE9E
:1020F000105A6B426A422146204601F07AFBBDEC41
:10210000028B70BD2DE9F0412DED028B04460D468A
:1021100000EE104AB8EEC02ADFEDE71A9FEDE51A8F
:10212000DFEDE40A9FEDE50A01F0A2F9B0EE408A86
:1021300000EE105AB8EEC02ADFEDDF1A9FEDDD1A6F
:10214000DFEDDC0A9FEDDD0A01F092F9F0EE408A46
:10215000B0EE482ADFEDDA1A9FEDD61ADFEDD50A88
:10216000B2EE040A01F008FABDEEC00A10EE106AE1
:10217000B0EE682ADFEDD21A9FEDCE1ADFEDCD0A60
:10218000B2EE040A01F0F8F9BDEEC00A10EE107AC2
:102190003B463A463146304601F02BFBBDEC028B04
:1021A000BDE8F0810246002901DD084600E0484212
:1021B00001468A4201DD084670474842824201DA00
:1021C0000846F9E71046F7E72DE9F041BD480068F9
:1021D0000D2832D2DFE800F03107325F9AC5FEFDEC
:1021E000FCFBFAF9F800B849B1F90210C1F1050099
:1021F0000A21FFF7D7FFB5490860B349B1F90A10C2
:10220000C1F106000A21FFF7CDFFB049486008463A
:10221000006800F129040846006800F189050846B5
:10222000406800F189060846406800F12B073B46EC
:1022300032462946204602F0C2FF45E2A249B1F9E2
:102240000E10A34A1268501A1421FFF7ABFF9F49E2
:1022500008609D49B1F90C109D4A1268501A14216A
:10226000FFF7A0FF9949486008464068C0F17C0428
:1022700008460068C0F1350508464068C0F13006E0
:1022800008460068C0F183073B463246294620468F
:1022900002F095FF18E28C49B1F904000F21FFF715
:1022A00081FF00B288498880B1F908000F21FFF74B
:1022B00079FF00B284490881B1F90410C1F102002C
:1022C0000A21FFF76FFF814908607F49B1F90810C3
:1022D000C1F104000A21FFF765FF7C494860084608
:1022E000406800F129040846406800F18905084665
:1022F000006800F189060846006800F12B073B469C
:1023000032462946204602F05AFFDDE16E49B1F916
:102310000C10C1F10A000A21FFF744FF6B49086065
:102320006949B1F90E10C1F10A000A21FFF73AFF1D
:10233000664948600846006800F17C040846406829
:1023400000F135050846006800F13006084640688F
:1023500000F183073B4632462946204602F02FFF14
:10236000B2E15949B1F902000F21FFF71BFF00B29A
:1023700055494880B1F90A000F21FFF713FF00B259
:1023800051494881B1F90A10C1F106000A21FFF74D
:1023900009FF4E4908604C49B1F90210C1F105002E
:1023A0000A21FFF7FFFE4949486008464068C0F12E
:1023B000290408464068C0F1890508460068C0F154
:1023C00089060846006806E043E117E1EBE0AFE06C
:1023D00083E034E008E0C0F12B073B463246294653
:1023E000204602F0ECFE6FE13749B1F90E10C1F161
:1023F00008000A21FFF7D6FE344908603249B1F9D6
:102400000C10C1F108000A21FFF7CCFE2F494860EB
:1024100008464068C0F17C0408460068C0F13505F4
:1024200008464068C0F1300608460068C0F18307DE
:102430003B4632462946204602F0C1FE44E122498D
:10244000B1F904000F21FFF7ADFE00B21E498880EC
:10245000B1F908000F21FFF7A5FE00B21A49088163
:10246000B1F90410C1F102000A21FFF79BFE1749E0
:1024700008601549B1F90810C1F104000A21FFF7FD
:1024800091FE124948600846406800F12904084658
:10249000406800F189050846006800F18906084691
:1024A000006800F12B073B4632462946204611E0E2
:1024B0000000E8420000000000A405460000C842F9
:1024C0000078344600000020F4010020580000206D
:1024D0005400002002F073FEF6E0FE49B1F90C1042
:1024E000C1F10A000A21FFF75DFEFB490860F949C6
:1024F000B1F90E10C1F10A000A21FFF753FEF649A7
:1025000048600846006800F17C040846406800F115
:1025100035050846006800F130060846406800F1BD
:1025200083073B4632462946204602F048FECBE070
:10253000E849B1F902001421FFF734FE00B2E54981
:102540004880B1F90A001421FFF72CFE00B2E149DE
:102550004881B1F90A10C1F106000F21FFF722FEF0
:10256000DD490860DB49B1F90210C1F105000F2116
:10257000FFF718FED849486008464068C0F12904B2
:1025800008464068C0F1890508460068C0F1890620
:1025900008460068C0F12B073B46324629462046D4
:1025A00002F00DFE90E0CB49B1F90E10C1F1080028
:1025B0000A21FFF7F7FDC8490860C649B1F90C10B8
:1025C000C1F108000A21FFF7EDFDC3494860084644
:1025D0004068C0F17C0408460068C0F13505084633
:1025E0004068C0F1300608460068C0F183073B46EA
:1025F00032462946204602F0E2FD65E0B549B1F9D0
:102600000C10C1F10A000A21FFF7CCFDB2490860A5
:10261000B049B1F90E10C1F10A000A21FFF7C2FD5D
:10262000AD4948600846006800F17C0408464068EF
:1026300000F135050846006800F13006084640689C
:1026400000F183073B4632462946204602F0B7FD9B
:102650003AE0A049B1F902000F21FFF7A3FD00B253
:102660009C494880B1F90A000F21FFF79BFD00B299
:1026700098494881B1F90A10C1F106000A21FFF713
:1026800091FD954908609349B1F90210C1F1050027
:102690000A21FFF787FD9049486008464068C0F16D
:1026A000290408464068C0F1890508460068C0F161
:1026B000890608460068C0F12B073B46324629468A
:1026C000204602F07CFD00BF00BFBDE8F08110B5E0
:1026D0000120824908600846008881B28048FFF7DF
:1026E00035FB12E040F252331A461946184601F003
:1026F00080F82B2389221146292002F060FD7548BD
:10270000B0F90A00142800DA00E0EBE700BF0EE0A1
:10271000FFF75AFD40F252331A461946184601F0A7
:1027200068F86C48B0F90000322800DA00E0EFE702
:1027300000BF0EE0FFF748FD4FF4A5731A46194697
:10274000184601F056F86348B0F90000192800DC7B
:1027500000E0EFE700BF10BD70B502205F490860E0
:102760000846008881B25E48FFF7F0FA00231A4657
:102770001946184601F03DF88323302235217C208C
:1027800002F01DFD4FF4FA70FFF752FC4FF42F706A
:102790005449086022E0534C24686442524D2D682D
:1027A0006319504C2468504D2D68621B4D4C2468B1
:1027B00064424D4D2D68611B4A4C24684A4D2D687A
:1027C000601901F016F84348B0F90C00142805DC34
:1027D0004048B0F90E00142800DC00E0DBE700BF41
:1027E0004FF42F70414908602EE0404C2468644249
:1027F0003D4D2D6863193D4C24683B4D2D68621B8F
:102800003A4C24686442384D2D68611B374C24686B
:10281000354D2D68601900F0ECFFFFF7D5FC2D4811
:10282000B0F9080014280FDB2A48B0F9080028285E
:102830000ADC2848B0F90400142805DB2548B0F963
:102840000400282800DC00E0CFE700BF28E0832355
:10285000302235217C2002F0B2FC224C24686442F4
:10286000214D2D6863191F4C24681F4D2D68621B74
:102870001C4C246864421C4D2D68611B194C246853
:10288000194D2D68601900F0B4FF1248B0F9080026
:10289000192804DB0F48B0F90400192800DA00E019
:1028A000D5E700BF70BD2DE9F04103200B4908605A
:1028B0000024002500231A461946184600F099FF07
:1028C0002B2389221146292002F079FCC820FFF72A
:1028D000AFFB2FE0F4010020580000200000002092
:1028E0000010014050000020600100204C0000203A
:1028F000FE4E3668A6F25233FC4E3668FC4FBA1BC9
:10290000FA4E3668B91BF94E3668A6F2523000F01E
:1029100070FFFFF759FCF748006830B92DB9641C07
:10292000022C00D107E0012504E0F24800680128EC
:1029300000D10025DCE700BFBDE8F08170B50420C0
:10294000ED49086040F23F20EC4908604FF41670F2
:10295000EB490860E848008881B2EA48FFF7F6F9D9
:102960000020E9490860E94908600021E848FEF7CD
:10297000B7FB00231A461946184600F03AFF832396
:10298000302235217C2002F01AFCC820FFF750FBD2
:102990000121DF48FEF7A4FB012240F22551DD486A
:1029A000FFF75FFA002240F22551DB48FFF759FAA2
:1029B00028E0D24C2468CD4D2D686319CF4C246893
:1029C0006442CA4D2D68621BCC4C2468C74D2D68EB
:1029D000611BCA4C24686442C44D2D68601900F024
:1029E00008FF8323302235217C2002F0E8FBCB480E
:1029F000B0F90C00142805DCC848B0F90E00142802
:102A000000DC00E0D5E700BF2EE0FFF7DDFBBC4CAB
:102A10002468B64D2D686319B94C24686442B34DDF
:102A20002D68621BB64C2468B04D2D68611BB44CF8
:102A300024686442AD4D2D68601900F0DAFEB74895
:102A4000B0F9020028280FDCB448B0F902001428BD
:102A50000ADBB248B0F90A00282805DCAF48B0F913
:102A60000A00142800DB00E0CFE700BF2DE083233D
:102A7000302235217C2002F0A2FBA14C24689B4D22
:102A80002D6863199E4C24686442984D2D68621B22
:102A90009B4C2468954D2D68611B994C24686442B9
:102AA000924D2D68601900F0A4FE9C48B0F9020018
:102AB00014280ADA9948B0F90A00142805DA002027
:102AC000914908609149086000E0D0E700BF70BDFF
:102AD0002DE9F041052088490860002400250846BA
:102AE000008881B28748FFF731F9002086490860E5
:102AF000864908608A4908608A4908608A490860EE
:102B000000218348FEF7ECFA00231A4619461846BE
:102B100000F06FFE2B2389221146292002F04FFB83
:102B2000C820FFF785FA01217948FEF7D9FA23E09A
:102B30006E4E3668A6F252336C4E36686C4FBA1B36
:102B40006A4E3668B91B694E3668A6F2523000F0FC
:102B500050FEFFF739FB6748001D006830B92DB9FA
:102B6000641C022C00D108E0012505E06148001D2D
:102B70000068012800D10025DAE700BFBDE8F08138
:102B800070B506205C49086040F271205B4908601E
:102B9000664908605848008881B25A48FFF7D6F85D
:102BA000002059490860594908605E4908605E493B
:102BB000086000215648FEF793FA00231A4619468A
:102BC000184600F016FE8323302235217C2002F0C7
:102BD000F6FAC820FFF72CFA01214D48FEF780FADB
:102BE000002240F225514B48FFF73BF9012240F209
:102BF00025514948FFF735F922E0404C24686442EA
:102C00003A4D2D6863193D4C2468384D2D68621B80
:102C10003A4C24686442354D2D68611B374C24685A
:102C2000324D2D68601900F0E4FD3C48B0F90C000D
:102C3000142805DC3948B0F90E00142800DC00E047
:102C4000DBE700BF2EE0394C24686442274D2D6835
:102C50006319364C2468254D2D68621B334C24685B
:102C60006442224D2D68611B304C24681F4D2D6835
:102C7000601900F0BEFDFFF7A7FA2848B0F9080078
:102C800014280FDB2548B0F9080028280ADC23485F
:102C9000B0F90400142805DB2048B0F90400282806
:102CA00000DC00E0CFE700BF4CE083233022352179
:102CB0007C2002F084FA114C246864420B4D2D688C
:102CC00063190E4C2468094D2D68621B0B4C246857
:102CD0006442064D2D68611B084C2468034D2D6825
:102CE000601900F086FD0D4822E000006001002020
:102CF000AEFCFFFF200240420000002050000020F8
:102D00004000002000100140240400403401002055
:102D1000001C004000480040004C0040F40100202E
:102D20005801002024080040380100204C000020F9
:102D3000B0F90800142805DCFD48B0F90400142897
:102D400000DC00E0B1E700BF70BD2DE9F0410720D5
:102D5000F8490860002400250846008881B2F6483A
:102D6000FEF7F4FF0020F5490860F5490860F549D1
:102D70000860F5490860F54908600021F448FEF74D
:102D8000AFF900231A461946184600F032FD2B23EE
:102D900089221146292002F012FAC820FFF748F9CB
:102DA0000121EB48FEF79CF921E0EA4E3668A6F2D5
:102DB0005233E84E3668E84FBA1BE64E3668B91B08
:102DC000E44E3668A6F2523000F013FDFFF7FCF92E
:102DD000E248006830B92DB9641C022C00D107E02C
:102DE000012504E0DD480068012800D10025DCE76A
:102DF00000BFBDE8F08170B50820CE49086040F200
:102E00007120D7490860D7490860CA48008881B254
:102E1000C948FEF79BFF0020C8490860C849086000
:102E20000021CB48FEF75CF900231A4619461846E4
:102E300000F0DFFC8323302235217C2002F0BFF933
:102E4000C820FFF7F5F80121C148FEF749F9012232
:102E500040F22551C448FFF704F8002240F2255102
:102E6000C248FEF7FEFF28E0BD4C2468B94D2D682E
:102E70006319BB4C24686442B64D2D68621BB84C84
:102E80002468B44D2D68611BB54C24686442B14D73
:102E90002D68601900F0ADFC8323302235217C20A1
:102EA00002F08DF9A248B0F90C00142805DCA04806
:102EB000B0F90E00142800DC00E0D5E700BF2EE0DA
:102EC000A84C2468A34D2D686319A64C246864425D
:102ED000A04D2D68621BA34C24689E4D2D68611B7C
:102EE000A04C246864429B4D2D68601900F081FC61
:102EF000FFF76AF98E48B0F9020028280FDC8C48E9
:102F0000B0F9020014280ADB8948B0F90A00282821
:102F100005DC8748B0F90A00142800DB00E0CFE7A1
:102F200000BF28E08323302235217C2002F047F9BE
:102F30008B4C2468874D2D686319894C2468644242
:102F4000844D2D68621B864C2468824D2D68611B60
:102F5000834C246864427F4D2D68601900F049FC61
:102F60007348B0F90200142804DB7148B0F90A0074
:102F7000142800DA00E0D5E700BF70BD2DE9F0416C
:102F800009206C490860002400250846008881B2A9
:102F90006948FEF7DBFE0020684908606849086060
:102FA0006849086068490860684908600021684805
:102FB000FEF796F800231A461946184600F019FC49
:102FC0002B2389221146292002F0F9F8C820FFF7A7
:102FD0002FF801215E48FEF783F823E05D4E366846
:102FE000A6F252335B4E36685B4FBA1B594E3668B9
:102FF000B91B584E3668A6F2523000F0FAFBFFF7C4
:10300000E3F85648001D006830B92DB9641C022C45
:1030100000D108E0012505E05048001D00680128A6
:1030200000D10025DAE700BFBDE8F08170B50A20C5
:103030004049086040F271204949086049490860E8
:103040003C48008881B23C48FEF780FE00203B49A6
:1030500008603B49086000213D48FEF741F8002325
:103060001A461946184600F0C4FB83233022352146
:103070007C2002F0A4F8C820FEF7DAFF01213448D2
:10308000FEF72EF822E0364C24686442314D2D685C
:103090006319334C24682F4D2D68621B304C246813
:1030A00064422C4D2D68611B2D4C2468294D2D68E0
:1030B000601900F09EFB1E48B0F90C00142805DCD6
:1030C0001B48B0F90E00142800DC00E0DBE700BF6D
:1030D0004EE0244C246864421E4D2D686319214C37
:1030E00024681C4D2D68621B1E4C24686442194DD7
:1030F0002D68611B1B4C2468164D2D68601900F06B
:1031000078FBFFF761F80A48B0F9080014282FDBB4
:103110000748B0F9080028282ADC0548B0F904005F
:10312000142825DB0248B0F90400282820DC20E020
:10313000F4010020000000200010014024040040A1
:1031400034010020580100202408004038010020EC
:10315000001C004060010020AEFCFFFF2002404246
:10316000500000204C00002000480040004C00406F
:10317000AFE700BF28E08323302235217C2002F016
:103180001EF8A94C24686442A84D2D686319A64C0A
:103190002468A64D2D68621BA54C24686442A34D8B
:1031A0002D68611BA24C2468A04D2D68601900F0A9
:1031B00020FBA048B0F90800142804DD9D48B0F9B0
:1031C0000400142800DC00E0D5E700BF70BD70B536
:1031D0000B20994908604FF416709849086096488A
:1031E000008881B29648FEF7B1FD0020954908603D
:1031F00095490860954908609549086000219548FF
:10320000FDF76EFF00231A461946184600F0F1FA42
:103210008323302235217C2001F0D1FFC820FEF726
:1032200007FF01218B48FDF75BFF28E0834C2468F2
:103230007E4D2D686319814C246864427B4D2D6856
:10324000621B7E4C2468794D2D68611B7B4C246881
:103250006442764D2D68601900F0CBFA832330224A
:1032600035217C2001F0ABFF7248B0F90C00142826
:1032700005DC7048B0F90E00142800DC00E0D5E74A
:1032800000BF2EE06D4C2468684D2D6863196B4CAF
:1032900024686442654D2D68621B684C2468634D48
:1032A0002D68611B654C24686442604D2D6860196F
:1032B00000F09FFAFEF788FF5E48B0F90200282868
:1032C0000FDC5C48B0F9020014280ADB5948B0F959
:1032D0000A00282805DC5748B0F90A00142800DB4A
:1032E00000E0CFE700BF28E08323302235217C2097
:1032F00001F065FF514C24684C4D2D6863194F4C0B
:1033000024686442494D2D68621B4C4C2468474D2B
:103310002D68611B494C24686442444D2D68601936
:1033200000F067FA4348B0F90200132804DB414873
:10333000B0F90A00142800DA00E0D5E700BF70BD3C
:1033400070B50C203C4908600846008881B23C48B2
:10335000FEF7FCFC00203D4908603D4908603E49FD
:1033600008603E4908603E49086000213948FDF781
:10337000B7FE00231A461946184600F03AFA2B23E6
:1033800089221146292001F01AFFC820FEF750FEBD
:1033900001213048FDF7A4FE01213248FDF7A0FECF
:1033A00018E0224C2468A4F25233204C24682E4D9D
:1033B0002A1B1E4C2468291B1C4C2468A4F2523082
:1033C00000F017FAFEF700FF1A48B0F90A001928B2
:1033D00000DB00E0E5E700BF2B238922114629200E
:1033E00001F0EDFE18E0114C2468A4F252330F4CAA
:1033F00024681D4D2A1B0D4C2468291B0B4C246886
:10340000A4F2523000F0F5F9184800681C2803D1E6
:1034100000201649086000E0E5E700BF00210D48E4
:10342000FDF75EFE70BD0000480000206001002036
:1034300044000020F4010020000000205000002083
:10344000001001406401002090010020240400408D
:1034500034010020001C00405801002024080040D6
:103460003801002000100040AEFCFFFF08000020E3
:1034700088B0F0EE402ACDED032ACDED040A8DEDA3
:10348000051A31EEC20A8DED000A9DED000A9FED8E
:10349000B43AB4EEC30AF1EE10FA14DB9DED000A63
:1034A0009FEDB03AB4EEC30AF1EE10FA0BD89FEDDF
:1034B000AE0A8DED000A9FEDAC0A8DED060A9FED78
:1034C000AA0A8DED010A9DED000A9FEDA83AB4EE1F
:1034D000C30AF1EE10FA2BDD9DED000A9FEDA43A30
:1034E000B4EEC30AF1EE10FA22D29DED060A9DED6C
:1034F000003A30EE030A8DED060A9DED060A9FEDB7
:103500009D3AB4EEC30AF1EE10FA04DD9FED990A7C
:103510008DED060A0CE09DED060A9FED973AB4EE9C
:10352000C30AF1EE10FA03D29FED930A8DED060A5D
:103530009DED030A9DED003A20EE030A9DED043A4D
:10354000DDED063A03EE230A9DED003ADDED013A8A
:1035500033EE633ADDED053A03EE830ABDEEC00AB1
:103560008DED070A9DED000A8DED010A9DED070A1C
:10357000B8EEC00A08B0704788B0F0EE402ACDED32
:10358000032ACDED040A8DED051A31EEC20A8DED48
:10359000000A9DED000AB9EE043AB4EEC30AF1EE5A
:1035A00010FA14DD9DED000AB1EE043AB4EEC30A40
:1035B000F1EE10FA0BD29FED6C0A8DED000A9FED33
:1035C0006A0A8DED060A9FED680A8DED010A9DEDF0
:1035D000000A9FED6A3AB4EEC30AF1EE10FA2BDD51
:1035E0009DED000A9FED663AB4EEC30AF1EE10FAC3
:1035F00022D29DED060A9DED003A30EE030A8DEDD4
:10360000060A9DED060A9FED5F3AB4EEC30AF1EE9D
:1036100010FA04DD9FED5B0A8DED060A0CE09DEDCE
:10362000060A9FED593AB4EEC30AF1EE10FA03D23E
:103630009FED550A8DED060A9DED030A9DED003ABA
:1036400020EE030A9DED043ADDED063A03EE230A6F
:103650009DED003ADDED013A33EE633ADDED053ADA
:1036600003EE830ABDEEC00A8DED070A9DED000A48
:103670008DED010A9DED070AB8EEC00A08B070474B
:1036800088B08DED030ACDED040A8DED051ACDED60
:10369000001A9DED032ADDED002A22EE222ADDED3F
:1036A000042A9DED063A02EE832ADDED002A9DED07
:1036B000013A72EEC32A9DED053A03EE222ABDEED1
:1036C000C22A8DED072A9DED002A8DED012A07986B
:1036D00008B0704788B0B0EE402A8DED032ACDEDDA
:1036E000040A8DED051ACDED001A9FED1F0A8DED30
:1036F000010A9FED1D0A8DED020A9DED000ADDED28
:10370000012A30EE620ADDED032A20EE220ADDED09
:10371000042A9DED003A02EE830ADDED002A9DEDBC
:10372000013AF0EE003A43EEC32A9DED023A72EE02
:10373000832A9DED053A03EE220ABDEEC00A8DED07
:10374000070A9DED010A8DED020A9DED000A8DED3F
:10375000010A9DED070AB8EEC00A08B070470000E4
:10376000000070C20000704200000000000048C36A
:103770000000484300004844000048C40000C8C29C
:103780000000C84200008243000082C31CB5012132
:103790001220FDF71BFA3020009001208DF8040064
:1037A00000208DF8060003208DF8050000208DF81C
:1037B000070069465448FCF76BFF9020009069466B
:1037C0005248FCF765FF1CBD0146B1F57A7F02DD6A
:1037D0004FF47A70704711F57A7F01DA4C48F9E7B7
:1037E0000846F7E70146002901DD084670474842D0
:1037F000FCE72DE9F04704460D4616461F464FF0FC
:103800002808002C0DDB04EB0800FFF7DDFF044661
:1038100010213D48FCF7B8FF21463E48FDF7C5FDA5
:1038200010E0A4EB0800FFF7CFFF04461021364854
:10383000FCF7ACFF2046FFF7D5FF814649463548E7
:10384000FDF7B3FD002D0DDB05EB0800FFF7BCFF16
:10385000054620212C48FCF799FF29462D48FDF705
:10386000A6FD10E0A5EB0800FFF7AEFF05462021FE
:103870002548FCF789FF2846FFF7B4FF81464946F3
:103880002448FDF794FD002E0CDB3046FFF79CFF2B
:10389000064610211D48FCF779FF31461E48FDF70A
:1038A00084FD0FE03046FFF78FFF064610211748D2
:1038B000FCF76AFF3046FFF795FF814649461648F8
:1038C000FDF773FD002F0CDB3846FFF77DFF074641
:1038D00080210E48FCF758FF39461048FDF765FD7A
:1038E0000FE03846FFF770FF074680210748FCF7D6
:1038F0004DFF3846FFF776FF814649460748FDF7FA
:1039000054FDBDE8F08700000004024000100240B2
:1039100018FCFFFF00400140004401400048014006
:1039200000B58BB001210804FDF7AAF90121102090
:10393000FDF74CF96020099002208DF82800032043
:103940008DF8290000208DF82A0001208DF82B0029
:1039500009A96D48FCF79CFE032205216A48FCF783
:1039600022FF032206216848FCF71DFF5320ADF813
:1039700018000020ADF81A004FF47A70079000206C
:10398000ADF8200006A96148FDF721FB7020ADF8D5
:1039900004000120ADF806000220ADF8100001A9D6
:1039A0005A48FDF7A9FB01A95848FDF7DEFB08219D
:1039B0005648FDF72EFD08215448FDF733FD01213F
:1039C0005248FDF76FFB01215048FDF789FB0BB012
:1039D00000BD00B58BB001214804FDF751F901216C
:1039E0000220FDF7F3F84FF48070099002208DF863
:1039F000280003208DF8290000208DF82A000120DE
:103A00008DF82B0009A94248FCF742FE0322082149
:103A10003F48FCF7C8FE5320ADF818000020ADF871
:103A20001A004FF47A7007900020ADF8200006A924
:103A30003848FDF7CCFA7020ADF804000120ADF84D
:103A400006000220ADF8100001A93248FDF754FB32
:103A500008213048FDF7DDFC01212E48FDF722FB4F
:103A600001212C48FDF73CFB0BB000BD00B58BB02D
:103A700001218804FDF704F901210220FDF7A6F8D1
:103A80004FF40070099002208DF8280003208DF873
:103A9000290000208DF82A0001208DF82B0009A9AB
:103AA0001B48FCF7F5FD032209211948FCF77BFEB2
:103AB0005320ADF818000020ADF81A004FF47A70CA
:103AC00007900020ADF8200006A91348FDF77FFA03
:103AD0007020ADF804000120ADF806000220ADF81A
:103AE000100001A90C48FDF707FB08210A48FDF763
:103AF00090FC01210848FDF7D5FA01210648FDF7A1
:103B0000EFFA0BB000BD0000001002400040014081
:103B10000004024000440140004801401CB501215E
:103B20001020FDF753F801210820FDF74FF801217F
:103B30000420FDF74BF84FF41540009001208DF85C
:103B4000040000208DF8060003208DF805000220F7
:103B50008DF807006946FE48FCF79AFD4FF41541C1
:103B6000FB48FCF713FE0A20009001208DF80400AA
:103B700000208DF8060003208DF8050002208DF846
:103B800007006946F348FCF783FD0A21F148FCF77A
:103B9000FDFD41F20800009001208DF80400002096
:103BA0008DF8060003208DF8050002208DF807002F
:103BB0006946E948FCF76CFD41F20801E648FCF76C
:103BC000E5FD1CBD2DE9F041E448007800F08000DF
:103BD00098B1E248007800F03F00C117E04A03C204
:103BE000DF48D0E90031DF480068181841F10001D2
:103BF000083A03C20020D9490870D9484FF4AA7284
:103C0000D0E900310020A3FB026801FB028103FB25
:103C1000001102220346304603F0E5FD044642F25D
:103C20001072002303F0DFFDCF4A03C2CF4B052201
:103C3000CD48008801B2CE4801F0DBF8CD480078CD
:103C400000F08000A0B1CB48007800F03F00C11721
:103C5000C94A03C2C848D0E90030C84909685918A0
:103C600040F10000083AC2E900100020C149087084
:103C7000C148D0E900104FF4AA730022A1FB0368E9
:103C800000FB038001FB020102220023304603F007
:103C9000AAFD044642F21072002303F0A4FDB84AC4
:103CA00003C2B24B9B1C0522B548008801B2B5483F
:103CB00001F09FF8B448007800F0800070B1B2487D
:103CC000007800F03F00C117B04A03C2B048006856
:103CD0000021083A03C20020AB490870AB494FF4F9
:103CE000AA7305C90021A0FB036802FB038200FB45
:103CF000012702220B463046394603F074FD044684
:103D000042F21072002303F06EFDA24A03C2974BE9
:103D10001B1D05229F48008801B29F4801F069F8E9
:103D20009E48007800F08000A0B19C48007800F028
:103D30003F00C1179A4A03C29948D0E90030994917
:103D40000968591840F10000083AC2E90010002043
:103D5000924908709248D0E900104FF4AA730022EB
:103D6000A1FB036800FB038001FB02010222002388
:103D7000304603F038FD044642F21072002303F08F
:103D800032FD894A03C2794B9B1D05228648008873
:103D900001B2864801F02DF88548007800F08000D7
:103DA000A0B18348007800F03F00C117814A03C2E8
:103DB0008048D0E9003080490968591840F1000076
:103DC000083AC2E90010002079490870794903C90E
:103DD0004FF4AA7C0022A0FB0C6801FB0C8100FBC5
:103DE000021102220023304603F0FDFC044642F299
:103DF0001072002303F0F7FC704A03C25B4B0833D8
:103E000005226E48008801B26D4800F0F2FF6D484F
:103E1000007800F08000A0B16A48007800F03F0010
:103E2000C117694A03C26848D0E900306749096888
:103E3000591840F10000083AC2E900100020614919
:103E4000087061484FF4AA714FF0000C0CC8A2FB37
:103E5000016803FB018102FB0C110222634630461C
:103E600003F0C1FC044642F21072002303F0BBFCD5
:103E7000574A03C23D4B0A3305225548008801B218
:103E8000544800F0B6FF5448007800F0800070B14C
:103E90005148007800F03F00C117504A03C2504813
:103EA00000680021083A03C200204B4908704B49C2
:103EB0004FF4AA734FF0000C05C9A0FB036802FB86
:103EC000038200FB0C2102226346304603F08BFC88
:103ED000044642F21072002303F085FC414A03C2FB
:103EE000224B0C3305223F48008801B23E4800F0C7
:103EF00080FF3E48007800F08000A0B13B48007889
:103F000000F03F00C1173A4A03C23948D0E90030F7
:103F100038490968591840F10000083AC2E9001010
:103F20000020324908703248D0E900214FF4AA70CD
:103F30000023A2FB006801FB008002FB03010222B8
:103F4000304603F050FC044642F21072002353E066
:103F500000100240000C02400008024060000020F7
:103F6000A000002064000020E0000020F4010020F8
:103F70000402002068000020A80000206C0000203F
:103F8000E80000202802002070000020B00000207F
:103F900074000020F00000204C0200207800002077
:103FA000B80000207C000020F800002070020020F3
:103FB00080000020C00000208400002000010020BC
:103FC0009402002088000020C80000208C000020FF
:103FD00008010020B802002090000020D00000203E
:103FE0009400002010010020DC0200209800002036
:103FF000D80000209C00002003F0F5FBFC4A03C21F
:10400000FC4B0522FA48008801B2FB4800F0F1FEA3
:10401000F8480E38B0F90000FF2804DDFF20F5490C
:104020000E39088005E0F3480E380088F1490E3952
:104030000880F0480E38B0F90200FF2804DDFF20A8
:10404000EC490E39488005E0EA480E384088E949D5
:104050000E394880E7480E38B0F90400FF2804DD27
:10406000FF20E4490E39888005E0E2480E38808858
:10407000E0490E398880DF480E38B0F90600FF2885
:1040800004DDFF20DB490E39C88005E0D9480E3831
:10409000C088D8490E39C880D6480E38B0F9080013
:1040A000FF2804DDFF20D3490E39088105E0D148FF
:1040B0000E380089CF490E390881CE480E38B0F944
:1040C0000A00FF2804DDFF20CA490E39488105E0B7
:1040D000C8480E384089C7490E394881C5480E384E
:1040E000B0F90C00FF2804DDFF20C2490E39888199
:1040F00005E0C0480E388089BE490E398881BD4828
:104100000E38B0F90E00FF2804DDFF20B9490E3942
:10411000C88105E0B7480E38C089B6490E39C88154
:10412000BDE8F08130B589B004460D460121082074
:10413000FCF795FD01210846FCF748FD0F2007908C
:1041400002208DF820008DF8230003208DF8210037
:1041500007A9AA48FCF79CFA0F21A848FCF716FB10
:1041600002220021A548FCF71EFB02220121A348E0
:10417000FCF719FB02221146A048FCF714FB0222AF
:1041800003219E48FCF70FFBADF810500020ADF85E
:1041900012000594ADF8180004A99948FCF717FF20
:1041A0000020ADF80000ADF802000120ADF80400D9
:1041B0000020ADF80600ADF8080069469048FDF70C
:1041C000DDFA0420ADF8000069468D48FDF7D6FA07
:1041D0000820ADF8000069468948FDF7CFFA0C20A9
:1041E000ADF8000069468648FDF7C8FA012211467D
:1041F0008348FDF78DFB012202218148FDF788FBF2
:10420000012204217E48FDF783FB012208217C481E
:10421000FDF77EFB012210217948FDF779FB012192
:104220007748FCF75DFF32208DF80C0001208DF8F7
:104230000D008DF80E008DF80F0003A8FCF737F97C
:1042400009B030BD30B589B004460D46012108469D
:10425000FCF716FD01211020FCF7B8FC4FF4D44008
:10426000079002208DF820008DF8230003208DF8A0
:10427000210007A96348FCF70BFA4FF4D4416148C9
:10428000FCF784FA012209215E48FCF78CFA01222E
:104290000B215C48FCF787FA01220D215948FCF7F5
:1042A00082FA01220E215748FCF77DFAADF8105032
:1042B0000020ADF812000594ADF8180004A952488A
:1042C000FCF785FE0020ADF80000ADF802000120EB
:1042D000ADF804000020ADF80600ADF8080069460E
:1042E0004948FDF74BFA0420ADF800000020ADF876
:1042F00002000120ADF804000020ADF80600ADF882
:10430000080069464048FDF739FA0820ADF800007A
:104310000020ADF802000120ADF804000020ADF847
:104320000600ADF8080069463748FDF727FA0C206B
:10433000ADF800000020ADF802000120ADF8040047
:104340000020ADF80600ADF8080069462E48FDF7DC
:1043500015FA012211462C48FDF7DAFA0122022152
:104360002948FDF7D5FA012204212748FDF7D0FAA4
:10437000012208212448FDF7CBFA0122102122480E
:10438000FDF7C6FA01212048FCF7AAFE1B208DF894
:104390000C0001208DF80D008DF80E008DF80F0037
:1043A00003A8FCF784F809B030BD10B517480078B1
:1043B00000F08000002867D101211148FDF7BFFA05
:1043C000A8B11248007800F0400080B10F48007892
:1043D00000F03F003F281DD10C48007840F08000DD
:1043E0000A4908704FF0FF300949086017E016E0ED
:1043F00018010020020200200003002000000240FB
:10440000000C00400010024000000140600000204D
:1044100064000020FE480078401CFD49087002211D
:10442000FC48FDF78CFA78B3F948007800F04000BA
:1044300078B1F748007840F08000F5490870F548F9
:10444000FDF71AFAF44908600021F248FDF763F815
:104450001AE00020EE490870EF490860EC48007847
:1044600040F04000EA4908700021EA48FCF738FEB5
:104470000021E848FCF7F4FD0221E648FDF74BF87F
:104480000121E448FCF72CFEE448007800F08000AD
:10449000002854D10121DF48FDF751FAD0B1DF489F
:1044A000007800F04000A8B1DC48007800F03F0040
:1044B0003F280AD1D948007840F08000D7490870D9
:1044C0004FF0FF30D649086004E0D4480078401C23
:1044D000D24908700421CF48FDF731FA78B3CF48AC
:1044E000007800F0400078B1CC48007840F08000BF
:1044F000CA490870C748FDF7C2F9C94908600021D8
:10450000C448FDF71AF81AE00020C4490870C449ED
:104510000860C248007840F04000C049087000219F
:10452000BC48FCF7DDFD0021BA48FCF799FD0221EB
:10453000B848FDF702F80121B648FCF7D1FDB948AB
:10454000007800F08000002854D10121B148FDF727
:10455000F6F9D0B1B348007800F04000A8B1B148F6
:10456000007800F03F003F280AD1AE48007840F0C4
:104570008000AC4908704FF0FF30AB49086004E0A0
:10458000A8480078401CA74908700821A148FDF7F9
:10459000D6F978B3A348007800F0400078B1A1487C
:1045A000007840F080009F4908709A48FDF76AF94A
:1045B0009D49086000219748FCF7D9FF1AE00020C8
:1045C00098490870984908609648007840F0400083
:1045D0009449087000218F48FCF782FD00218D4826
:1045E000FCF73EFD02218B48FCF7C1FF0121894801
:1045F000FCF776FD8D48007800F08000002854D14B
:1046000001218448FDF79BF9D0B18848007800F07B
:104610004000A8B18548007800F03F003F280AD14B
:104620008248007840F08000804908704FF0FF30E9
:104630007F49086004E07D480078401C7B49087091
:1046400010217448FDF77BF978B37848007800F0C2
:10465000400078B17548007840F0800073490870D8
:104660006C48FDF712F97249086000216948FCF7AF
:1046700098FF1AE000206D4908706D4908606B488A
:10468000007840F040006949087000216148FCF75B
:1046900027FD00215F48FCF7E3FC02215D48FCF7A1
:1046A00080FF01215B48FCF71BFD1F215948FDF7E6
:1046B00057F910BD10B55F48007800F08000002861
:1046C00054D101215C48FDF73AF9D0B1594800783E
:1046D00000F04000A8B15748007800F03F003F28A4
:1046E0000AD15448007840F08000524908704FF6D3
:1046F000FF705249086004E04E480078401C4D4964
:10470000087002214C48FDF71AF978B3494800783F
:1047100000F0400078B14748007840F080004549FB
:1047200008704548FDF7A8F8444908600021424850
:10473000FCF7F1FE1AE000203E4908703F4908608E
:104740003C48007840F040003A49087000213A485F
:10475000FCF7C6FC00213848FCF782FC02213648F1
:10476000FCF7D9FE01213448FCF7BAFC3448007844
:1047700000F08000002873D101212F48FDF7DFF8F9
:10478000D0B12F48007800F04000A8B12C48007844
:1047900000F03F003F280AD12948007840F080000F
:1047A000274908704FF6FF702649086004E0244846
:1047B0000078401C2249087004211F48FDF7BFF80B
:1047C00020B31F48007800F0400078B11C48007802
:1047D00040F080001A4908701748FDF750F8194951
:1047E000086000211448FCF7A8FE39E000201449B5
:1047F0000870144908601248007840F040001049E1
:10480000087000210C48FCF76BFC1DE028E000005C
:1048100060000020000C00406400002068000020C0
:104820006C00002070000020740000207800002040
:104830007C00002080000020000001408400002057
:10484000880000208C0000200021E048FCF708FCD4
:104850000221DE48FCF771FE0121DC48FCF740FC38
:10486000DB48007800F08000002854D10121D748AF
:10487000FDF765F8D0B1D648007800F04000A8B147
:10488000D348007800F03F003F280AD1D048007894
:1048900040F08000CE4908704FF6FF70CD490860A7
:1048A00004E0CB480078401CC94908700821C7487B
:1048B000FDF745F878B3C648007800F0400078B1BD
:1048C000C348007840F08000C1490870BF48FCF739
:1048D000D9FFC04908600021BC48FCF748FE1AE037
:1048E0000020BB490870BB490860B948007840F017
:1048F0004000B74908700021B448FCF7F1FB0021E3
:10490000B248FCF7ADFB0221B048FCF730FE0121B4
:10491000AE48FCF7E5FBB048007800F080000028C6
:1049200054D10121A948FDF70AF8D0B1AA4800786E
:1049300000F04000A8B1A848007800F03F003F28F0
:104940000AD1A548007840F08000A34908704FF6CE
:10495000FF70A249086004E09F480078401C9E490F
:10496000087010219948FCF7EAFF78B39A4800785C
:1049700000F0400078B19848007840F080009649F7
:1049800008709248FCF781FF9449086000218F4825
:10499000FCF707FE1AE000208F4908708F49086075
:1049A0008D48007840F040008B490870002187480E
:1049B000FCF796FB00218548FCF752FB0221834857
:1049C000FCF7EFFD01218148FCF78AFB1F217F489E
:1049D000FCF7C6FF10BD10B54FF400418048FBF74F
:1049E000D3FE0F20FDF7DCFA4FF400417C48FBF7C3
:1049F000CDFE4FF480517A48FBF7C6FE0F20FDF73D
:104A0000CFFA4FF480517648FBF7C0FE4FF4806137
:104A10007348FBF7B9FE0F20FDF7C2FA4FF480612F
:104A20006F48FBF7B3FE02216E48FBF7ADFE0F2087
:104A3000FDF7B6FA02216B48FBF7A8FE4FF4807130
:104A40006748FBF7A1FE0F20FDF7AAFA4FF480712B
:104A50006348FBF79BFE08216248FBF795FE0F2099
:104A6000FDF79EFA08215F48FBF790FE4FF4805156
:104A70005D48FBF789FE0F20FDF792FA4FF4805155
:104A80005948FBF783FE08215748FBF77DFE0F20AE
:104A9000FDF786FA08215448FBF778FE10BD10B5E3
:104AA0004FF400414E48FBF771FE4FF480514C48E3
:104AB000FBF76CFE4FF480614948FBF767FE02216B
:104AC0004848FBF763FE4FF480714548FBF75EFEF4
:104AD00008214448FBF75AFE4FF480514248FBF747
:104AE00055FE08214048FBF751FE10BD1CB50120C2
:104AF0000821CDE900103D48B0F90020032314211E
:104B0000002001F006FE01200821CDE90010374801
:104B1000B0F9022003231E21002001F0FAFD01203C
:104B20000821CDE900103148B0F9042003232821E1
:104B3000002001F0EEFD01200821CDE900102B48F6
:104B4000B0F9062003233221002001F0E2FD01200C
:104B50000821CDE900102548B0F9082003231421CD
:104B60001E2001F0D6FD01200821CDE900101F48CC
:104B7000B0F90A2003231E21084601F0CAFD0120D6
:104B80000821CDE900101948B0F90C200323282191
:104B90001E2001F0BEFD01200821CDE900101348C0
:104BA000B0F90E20032332211E2001F0B2FD01F0E6
:104BB000C2FB0A20FDF73CFA1CBD421802EBD2737F
:104BC0005B1000EE103AB8EEC00A704700000140DA
:104BD0009000002094000020980000209C000020FD
:104BE00000100240000C024000080240F4010020C6
:104BF00030B503460C46DFEDB90AB0EE600A00217D
:104C000013F8325F1878401C03F8320923F8154076
:104C100093F83200904202DB002083F8320000213A
:104C20000BE033F9110000EE900AF8EEE00A70EEA6
:104C3000800AB0EE600A481CC1B29142F1DB00EE7E
:104C4000902AF8EE600A80EE201AFDEEC10A10EEFE
:104C5000900A30BD10B5F0EE400A9FEDA00AB0EE0C
:104C6000401A002290F89041631C80F8903100EBCC
:104C70008403C3ED000A90F890318B4202DB0023DD
:104C800080F89031002209E000EB820393ED000AE6
:104C900030EE010AB0EE401A531CDAB28A42F3DB5E
:104CA00000EE101AF8EE401A81EE210A10BD30B560
:104CB0000B469FED8A0AF0EE400A002110F8325FA1
:104CC0000478641C00F8324920F8153090F832401E
:104CD000944202DB002480F83240B0F90040804D5D
:104CE0002C80804D2C80012117E030F911407D4D42
:104CF000B5F90050AC4203DD30F81140794D2C80FD
:104D000030F91140764DB5F90050AC4203DA30F875
:104D10001140734D2C804C1CE1B29142E5DB002127
:104D20000BE030F9114000EE104AB8EEC00A30EE48
:104D3000200AF0EE400A4C1CE1B29142F1DB694CD2
:104D4000B4F90040664DB5F900502C4400EE104A0D
:104D5000B8EEC00A30EEC00AF0EE400A941E00EE33
:104D6000104AB8EEC01A80EE810A30BD70B50C460C
:104D70000021DFED5A0AB0EE600A4678751C4570D6
:104D8000851D25F816400578DDB100BF0BE0851DB7
:104D900035F9115000EE905AF8EEE00A70EE800AF4
:104DA000B0EE600A491C9142F1D300EE902AF8EE71
:104DB000600A80EE201AFDEEC10A10EE905A2DB264
:104DC00045800578012D0CD1B0F9025041F28836AA
:104DD000B54204DA45881D804588858001E08588D4
:104DE0001D804578954203D1012505700025457049
:104DF00070BD70B50C460021DFED380AB0EE600AD8
:104E00004678751C4570851D25F816400578002DDF
:104E10004CD0C588ADB2344E3580344E358001213A
:104E200018E0851D35F91150304E3688B54204DD45
:104E3000851D35F811502D4E3580851D35F91150E1
:104E4000294E3688B54204DA851D35F81150264EB4
:104E50003580491C9142E4D300210BE0851D35F9D2
:104E6000115000EE905AF8EEE00A70EE800AB0EEB3
:104E7000600A491C9142F1D31C4D2D881A4E368888
:104E8000354400EE905AF8EEE00A70EE600AB0EE9B
:104E9000600A951E00EE905AF8EEE00A80EE201AA5
:104EA000FDEEC10A10EE905A2DB245800578012D15
:104EB0000CD1B0F9025041F28836B54204DA458887
:104EC0001D804588858001E085881D804578954254
:104ED00003D1012505700025457070BD000000005C
:104EE00022010020200100202601002024010020B2
:104EF00000B58BB001210846FBF768FE01210220B6
:104F0000FBF764FE01210846FBF7A9FE02208DF89D
:104F100028008003099003208DF8290000208DF8D7
:104F20002A0001208DF82B0009A9FC48FBF7B0FBF3
:104F300002208DF8280040F60840099003208DF8E3
:104F4000290000208DF82A0001208DF82B0009A9E6
:104F5000F348FBF79DFB01220F21F048FBF723FCF0
:104F600001220321EE48FBF71EFC01220A21EC4836
:104F7000FBF719FC01220B21E948FBF714FC002088
:104F8000ADF8200044F6206007905320ADF81800DB
:104F90000020ADF81A0006A94FF08040FCF717F882
:104FA0007020ADF804000220ADF810000120ADF82B
:104FB000060001A98007FCF79FF801A94FF0804087
:104FC000FCF7D3F801A94FF08040FCF71BF901A9C9
:104FD0004FF08040FCF77CF90821C806FCF719FA6D
:104FE0000821C806FCF71EFA0821C806FCF727FAB4
:104FF0000821C806FCF72CFA01218807FCF752F8B3
:1050000001218807FCF76CF80BB000BD00B58BB030
:1050100001210420FBF7DAFD01210220FBF730FE1D
:1050200002208DF82800C020099003208DF8290067
:1050300000208DF82A0001208DF82B0009A9B9481D
:10504000FBF726FB03220621B648FBF7ACFB032245
:105050000721B448FBF7A7FB0020ADF82000ADF80E
:105060001A0044F61F600790A720ADF81800002032
:105070008DF8220006A9AC48FBF7A9FF0020039099
:105080007020ADF804000120ADF806000020ADF856
:1050900008000220ADF810000820ADF81200400111
:1050A000ADF814000020ADF8160001A99E48FCF7E9
:1050B00023F801A99C48FCF758F808219A48FCF706
:1050C000A8F908219848FCF7ADF901219648FBF7AB
:1050D000E9FF01219448FCF7F4FB01219248FBF71A
:1050E000FFFF0BB000BD00B58BB001210846FBF7F8
:1050F0006DFD01210802FBF7B2FD02208DF82800AA
:105100008020099003208DF8290000208DF82A00C6
:1051100001208DF82B0009A98048FBF7B9FA092274
:1051200007217E48FBF73FFB0020ADF8200044F646
:105130001F6007905320ADF818000020ADF81A004A
:1051400006A97A48FBF743FF7020ADF8040002205F
:10515000ADF810000120ADF8060001A97348FBF777
:10516000CBFF08217148FCF754F901216F48FBF788
:1051700099FF01216D48FBF7B3FF0BB000BD70B57F
:105180002DED068B0446204602F0E6FC41EC1A0B9E
:105190009FED670B53EC102B02F0FDFB41EC190B5C
:1051A0009FED650B53EC102B02F04EFB41EC180BFE
:1051B00002F0E3FC05462846BDEC068B70BD2DE9E8
:1051C000F05F07460C4615461E463846FFF7D7FFE8
:1051D00080462046FFF7D3FF81462846FFF7CFFFE2
:1051E00082463046FFF7CBFF834641464FF0804072
:1051F000FCF7DBF849464FF08040FCF7D8F8514601
:105200004FF08040FCF7D5F859464FF08040FCF74E
:10521000D2F8BDE8F09F70B504460D462846FFF76A
:10522000AEFF0646012C06D0022C0AD0032C0ED06D
:10523000042C18D111E031464FF08040FCF7B5F84E
:1052400011E031464FF08040FCF7B1F80BE03146F9
:105250004FF08040FCF7ADF805E031464FF080405C
:10526000FCF7A9F800BF00BF70BD2DE9F047064666
:105270000C4615463046FFF782FF07462046FFF7EB
:105280007EFF80462846FFF77AFF8146394626484A
:10529000FCF78BF841462448FCF789F84946234837
:1052A000FCF783F8BDE8F0872DE9F0478246884691
:1052B00091461F465046FFF762FF05464046FFF7FE
:1052C0005EFF0646B9F1010F09D0B9F1020F37D0E0
:1052D000B9F1030F52D0B9F1040F1DD16CE0B54202
:1052E0000DDA2C4608E021464FF08040FCF75DF8CF
:1052F000B8B2FCF79DFE641CB442F4DD0CE02C4611
:1053000008E021464FF08040FCF74FF8B8B2FCF7B8
:105310008FFE641EB442F4DA6CE00000000002402C
:105320000004024000080240000401400020004048
:10533000A3737E8AE33826400000000000407F40CF
:10534000B5420DDA2C4608E021464FF08040FCF7CC
:105350002EF8B8B2FCF76CFE641CB442F4DD0CE02D
:105360002C4608E021464FF08040FCF720F8B8B208
:10537000FCF75EFE641EB442F4DA3BE0B5420DDA9F
:105380002C4608E021464FF08040FCF712F8B8B2F6
:10539000FCF74EFE641CB442F4DD0CE02C4608E041
:1053A00021464FF08040FCF704F8B8B2FCF740FE0D
:1053B000641EB442F4DA1DE0B5420DDA2C4608E072
:1053C00021464FF08040FBF7F6FFB8B2FCF730FE05
:1053D000641CB442F4DD0CE02C4608E021464FF09A
:1053E0008040FBF7E8FFB8B2FCF722FE641EB4422F
:1053F000F4DA00BF00BFBDE8F0872DE9F047814631
:105400000F4690464846FFF7BAFE05463846FFF776
:10541000B6FE0646B5421DDA2C4618E021464FF08E
:105420008040FBF7C2FF21464FF08040FBF7BFFFF3
:1054300021464FF08040FBF7BCFF21464FF08040F3
:10544000FBF7B9FF1FFA88F0FCF7F2FD641CB442C9
:10545000E4DD18E02C4614E021464FF08040FBF7D5
:10546000A4FF21464FF08040FBF7A1FF21464FF0FB
:105470008040FBF79EFF21464FF08040FBF79BFFEB
:10548000641EB442E8DABDE8F0872DE9F0472DED5F
:10549000088BB0EE408AF0EE608AB0EE419AF0EEF2
:1054A000619A9FED6C0A28EE000A10EE101A084669
:1054B00002F082FB41EC1B0B9FED670B53EC102BB2
:1054C00002F0DBFA41EC1A0B02F057FB04469FEDA9
:1054D000610A28EE800A10EE101A084602F06CFBF2
:1054E00041EC1B0B9FED5C0B53EC102B02F0C5FA4B
:1054F00041EC1A0B02F041FB05469FED560A29EEDE
:10550000000A10EE101A084602F056FB41EC1B0B85
:105510009FED510B53EC102B02F0AFFA41EC1A0B3C
:1055200002F02BFB06469FED4B0A29EE800A10EE97
:10553000101A084602F040FB41EC1B0B9FED460B96
:1055400053EC102B02F099FA41EC1A0B02F015FB08
:105550000746002C0EDD2820FFF711FE814620466D
:10556000FFF70DFE09EB000841464FF08040FBF7C6
:105570001CFF0DE02820FFF702FE81462046FFF7C2
:10558000FEFDA9EB000841464FF08040FBF70DFF00
:10559000002D0EDD8F20FFF7F2FD81462846FFF734
:1055A000EEFD09EB000841464FF08040FBF7FFFE9F
:1055B0000DE08F20FFF7E3FD81462846FFF7DFFD72
:1055C000A9EB000841464FF08040FBF7F0FE002EAB
:1055D0000EDD8520FFF7D3FD81463046FFF7CFFD76
:1055E00009EB000841464FF08040FBF7E2FE0DE07A
:1055F0008520FFF7C4FD81463046FFF7C0FDA9EBCB
:10560000000841464FF08040FBF7D3FE002F0EDD2F
:105610002820FFF7B4FD81463846FFF7B0FD09EBBF
:10562000000841464FF08040FBF7C5FE0DE0282002
:10563000FFF7A5FD81463846FFF7A1FDA9EB00085D
:1056400041464FF08040FBF7B6FEBDEC088BBDE84D
:10565000F0870000000034436F1283C0CA21094064
:1056600030B589B004460D4601210220FBF7F7FA58
:1056700001210220FBF7AAFA022204218B48FBF742
:1056800092F8022205218948FBF78DF8302001901D
:1056900002208DF8080000208DF80A0001208DF806
:1056A0000B0001A98148FAF7F3FFADF818500794F1
:1056B0000020ADF81A00ADF8200006A97C48FBF7E1
:1056C00086FC00231A4603217948FCF7F4F903A865
:1056D000FCF78BF80620ADF8140003A97448FCF71A
:1056E0004DF801217248FCF727F901221146704854
:1056F000FCF70EF900216E48FBF7B2FC01216C4863
:10570000FBF7EEFC09B030BD30B589B004460D465C
:1057100001210420FBF7A3FA01210820FBF756FA28
:1057200002220C216348FBF73EF802220D2161485A
:10573000FBF739F84FF44050019002208DF8080033
:1057400000208DF80A0001208DF80B0001A95948AE
:10575000FAF79EFFADF8185007940020ADF81A0034
:10576000ADF8200006A95448FBF731FC00231A4687
:1057700003215148FCF79FF903A8FCF736F80620EF
:10578000ADF8140003A94C48FBF7F8FF01214A4883
:10579000FCF7D2F8012211464748FCF7B9F800217E
:1057A0004548FBF75DFC01214348FBF799FC09B034
:1057B00030BD3F482430006800B200EE100AB8EE59
:1057C000C00A3E4880ED000A3B482430006800B221
:1057D00000EE100AB8EEC00A384880ED010A002039
:1057E000334924310860344924310860704700B5DA
:1057F000F0EE400AFFF7DDFF304890ED000A9FED24
:10580000301AC0EE011A9FED2F0A21EE800A9FED9B
:105810002E1A20EE010A80ED040A90ED010A9FED98
:10582000281AC0EE011A9FED270A21EE800A9FED8B
:10583000261A20EE010A80ED050A90ED040AB1EE69
:10584000400A80EE201A80ED021A90ED050AB1EEB2
:10585000400A80EE201A80ED031A00BD00B5FFF764
:10586000A8FF1648D0ED000A184890ED000AB8EEDF
:10587000C00A30EE800ABDEEC00A80ED000A0F4873
:10588000D0ED010A124890ED000AB8EEC00A30EEE1
:10589000800ABDEEC00A80ED000A0C4800680D4980
:1058A00048600B480068C86000BD0000000402406A
:1058B00000040040000C02400008004034030020B7
:1058C00000001945C3F54840CDCCCC403401002040
:1058D00038010020240300201CB501210846FBF7F5
:1058E00075F901218803FBF7CBF94FF47C70009028
:1058F00000208DF804008DF8060003208DF80500C7
:1059000001208DF8070069460148FAF7C1FE1CBD69
:10591000000002401CB501211020FBF757F90F20B1
:10592000009000208DF8040003208DF80500012070
:105930008DF807006946FE48FAF7AAFE1CBD10B5AF
:10594000044614B10120FB490870FA48007858B3A6
:10595000F948006858B1F848001D006838B1F648A9
:105960000830006818B1F4480C300068E0B90A202B
:10597000FCF75EFB0020EF490870EF48006808B9AB
:10598000012010BDEC48001D006808B90220F8E7AE
:10599000E9480830006808B90320F2E7E6480C300F
:1059A0000068B0B90420ECE7E3480068012810D192
:1059B000E148001D006801280BD1DF48083000686D
:1059C000012806D1DC480C300068012801D1D949F2
:1059D00008700020D5E710B5044614B10120D7495E
:1059E0000870D648007858B3D348006858B1D248F8
:1059F000001D006838B1D0480830006818B1CE48A2
:105A00000C300068E0B90A20FCF712FB0020CB49FB
:105A10000870C948006808B9012010BDC648001DBB
:105A2000006808B90220F8E7C3480830006808B9E0
:105A30000320F2E7C0480C300068B0B90420ECE75E
:105A4000BD480068012810D1BB48001D006801282E
:105A50000BD1B94808300068012806D1B6480C308F
:105A60000068012801D1B54908700020D5E710B5BC
:105A7000044614B10120B2490870B148007858B307
:105A8000AD48006858B1AC48001D006838B1AA485C
:105A90000830006818B1A8480C300068E0B90A2046
:105AA000FCF7C6FA0020A6490870A348006808B9A8
:105AB000012010BDA048001D006808B90220F8E7C9
:105AC0009D480830006808B90320F2E79A480C3076
:105AD0000068B0B90420ECE797480068012810D1AD
