:020000040800F2
:10000000E0130020D5050008A9030008AB03000891
:10001000AF030008B3030008B703000800000000A6
:10002000000000000000000000000000BB0300080A
:10003000BD03000800000000BF030008C103000862
:10004000EF050008EF050008EF050008EF050008C0
:10005000EF050008EF050008EF050008EF050008B0
:10006000EF050008EF050008EF050008EF050008A0
:10007000EF050008EF050008EF050008EF05000890
:10008000EF050008EF050008EF050008EF05000880
:10009000EF050008EF050008EF050008EF05000870
:1000A000EF050008EF050008EF05000845340008DB
:1000B000EF050008EF050008EF050008EF05000850
:1000C000EF050008EF050008EF050008EF05000840
:1000D000EF050008F15C00081B5E00089D5F00084A
:1000E000EF050008EF050008EF050008EF05000820
:1000F000194F0008EF050008EF050008EF0500089C
:10010000EF050008EF0500083B310008EF05000887
:1001100083610008EF050008EF050008F54C0008B2
:10012000EF050008EF050008EF050008EF050008DF
:10013000EF050008EF050008EF050008EF050008CF
:10014000EF050008EF050008EF050008EF050008BF
:10015000EF050008EF050008EF050008EF050008AF
:10016000EF050008EF050008EF050008EF0500089F
:10017000EF050008EF050008EF050008EF0500088F
:10018000EF050008EF050008DFF810D006F078FC56
:100190000048004715020008AFF30080E01300207C
:1001A0002DE9F04706460C46A2464FEA8A0006F0C3
:1001B000DBFC0546002013E0002145F8201000BFBD
:1001C0000BE056F8212056F820309A4204D155F819
:1001D0002020521C45F82020491CA142F1DB401C84
:1001E000A042E9DB4FF00008D6F80090002008E0BC
:1001F00055F82010414503DD55F8208056F8209031
:10020000401CA042F4DB4F46284606F085FC3846E9
:10021000BDE8F0872DED048B06F00CF906F0D8F858
:100220002F2385228F21262003F08DFE534802685C
:10023000534801785348007803F0DBFE9CE000202F
:1002400004F04FFA0446022C12D14E48007806F012
:10025000FFFA41EC190B9FED4C0B53EC102B06F001
:100260006FF941EC180B06F01FFB464908707AE065
:10027000032C05D14248007817304149087072E0DC
:10028000042C70D104203F49087009203C490870B3
:1002900068E03F48006804F0FBF901282DD125E013
:1002A0003C48006848B93C480068012805D1012253
:1002B00040F22551394801F07EFE3648001D0068A5
:1002C00048B900202D49086032480068012805D14E
:1002D0003149086002E05020284908602748026838
:1002E000274801782748007803F083FE28480068F3
:1002F00004F0CEF9012835D1D2E72548006804F092
:10030000C7F902282ED127E022481430006848B9E6
:1003100023480068012805D1012240F225512148D7
:1003200001F049FE1B481030006850B90020134905
:100330000860184814300068012805D11849086081
:1003400002E050200D4908600C4802680C48017812
:100350000C48007803F04DFE0D48006804F098F951
:100360000228D1D095E7054802680548017805487C
:10037000007803F03EFE00BF61E70000140100209A
:100380001101002010010020000000000080364014
:1003900054010020100240425C010020004800404F
:1003A00068010020004C0040704700BFFEE700BF1E
:1003B000FEE700BFFEE700BFFEE7704770477047EB
:1003C000704700000CB5002001900090764800684E
:1003D00040F480307449086000BF7348006800F43E
:1003E000003000900198401C0190009818B90198C5
:1003F000B0F5A04FF1D16C48006800F4003010B1A6
:100400000120009001E0002000900098012846D1D2
:1004100065484030006840F08050634940310860D2
:100420006248006840F44040604908605E48083017
:1004300000685D49083108600846006840F40040E3
:1004400008600846006840F4A05008605848091F3A
:100450000860081F006840F08070091F086000BF36
:100460005148006800F000700028F9D040F2057093
:10047000504908604C480830006820F003004A49A1
:10048000083108600846006840F00200086000BFBC
:1004900045480830006800F00C000828F8D10CBD71
:1004A00010B54548006840F47000434908603E4874
:1004B000006840F001003C49086000203A490831DA
:1004C0000860394800683D490840374908603C48A1
:1004D000091D0860081F006820F48020091F0860BB
:1004E000002031490C310860FFF76CFF4FF00060CD
:1004F00031498039086010BD70B500200022022308
:1005000000240221284D08352D6805F00C0020B18B
:10051000042806D0082834D107E02A4D2A4E356039
:1005200033E02A4D284E35602FE01F4D2D1D2D68DC
:10053000C5F380541C4D2D1D2D6805F03F0154B1AD
:10054000224DB5FBF1F5184E361D3668C6F38816F8
:1005500005FB06F209E01B4DB5FBF1F5124E361D09
:100560003668C6F3881605FB06F20F4D2D1D2D6863
:10057000C5F301456D1C6B00B2FBF3F5124E3560FF
:1005800003E0104D104E356000BF00BF064D08352A
:100590002D68C5F303150E4E705D0B4D2D68C540DB
:1005A000094E356070BD0000003802400070004008
:1005B00008544007003C024088ED00E0FFFFF6FED3
:1005C000103000240024F4001C00002000127A00E7
:1005D000200000200648804706480047FEE7FEE767
:1005E000FEE7FEE7FEE7FEE7FEE7FEE7FEE7FEE7E3
:1005F000A10400088901000832490143324A116010
:10060000704770B5002100230F22C4781CB32E4C14
:10061000246804F4E064C4F5E064C4F30721C1F184
:100620000404E3B20A4144789C40E1B28478144067
:1006300021430C07210E254C05786155047804F000
:100640001F050124AC4005786D11AD0005F1E025D2
:10065000C5F8004109E0047804F01F050124AC400E
:100660001B4D0678761145F8264070BD194A0A40A0
:100670000243154B1B1F1A60704739B1124A121DF5
:1006800012680243104B1B1D1A6006E00E4A121D31
:10069000126882430C4B1B1D1A607047042808D156
:1006A0004FF0E021096941F004014FF0E0221161AF
:1006B00007E04FF0E021096921F004014FF0E0224A
:1006C000116170470000FA050CED00E000E400E065
:1006D00080E100E080FFFF1F10B504469848844287
:1006E00008D10121084600F086FB0021012000F01E
:1006F00082FB76E09348844208D10121022000F079
:100700007AFB0021022000F076FB6AE08E488442EA
:1007100008D10121042000F06EFB0021042000F02C
:100720006AFB5EE08948844208D10121082000F07C
:1007300062FB0021082000F05EFB52E08448844206
:1007400008D10121102000F056FB0021102000F0FC
:1007500052FB46E07F48844208D10121202000F06E
:100760004AFB0021202000F046FB3AE07A48844210
:1007700008D10121402000F03EFB0021402000F084
:100780003AFB2EE07548844208D10121802000F018
:1007900032FB0021802000F02EFB22E070488442D2
:1007A00008D10121801500F026FB0021A01500F0E2
:1007B00022FB16E06B48844208D10121401500F06D
:1007C0001AFB0021601500F016FB0AE0664884421F
:1007D00007D10121001500F00EFB0021201500F0CB
:1007E0000AFB10BDF0B50A4600210023002400BF1B
:1007F0003DE0012505FA01F3156805EA03049C4272
:1008000034D105684F000326BE40B5430560157915
:100810004E00B5400668354305601579012D02D0BC
:100820001579022D16D185684F000326BE40B543C9
:10083000856055794E00B5408668354385604568CA
:1008400001268E40B5434560456896798E40B6B224
:1008500035434560C5684F000326BE40B543C560BB
:10086000D5794E00B540C6683543C560491C10298E
:10087000BFD3F0BD4FF6FF710160002101714171DE
:100880008171C171704708B54FF480320092009AAF
:100890000A430092009AC261C161009AC261C269B2
:1008A0000092C269009208BD0246002013690B4005
:1008B0000BB1012000E0002070470146086980B2BA
:1008C00070470246002053690B400BB1012000E045
:1008D000002070470146486980B270470183704725
:1008E000418370470AB1018300E041837047416151
:1008F000704742694A4042617047F0B500230024C6
:100900004D07ED0E02FA05F3CE1000F1200555F863
:1009100026504E07F70E0F26BE40B543CF1000F10C
:10092000200646F82750CE1000F1200555F8265035
:1009300045EA0304CE1000F1200545F82640F0BD3D
:10094000000002400004024000080240000C024087
:10095000001002400014024000180240001C024037
:10096000002002400024024000280240F9480068AC
:1009700040F00100F74908600020F649083108609E
:10098000F4480068F4490840F2490860F348091D3A
:100990000860F348EF4984310860F0481038091DB9
:1009A0000860EC48006820F48020EA4908600020D4
:1009B000E8490C310860E7498C3108607047002134
:1009C000E44A921C117011460870704710B5014638
:1009D0000022002300204A11012A02D1DD4C2368A5
:1009E00008E0022A03D1DB4C7034236802E0D94CC2
:1009F0007434236801F01F02012494401C400CB1A0
:100A0000012000E0002010BD38B500200090002437
:100A1000002500BF3120FFF7D9FF05460098401C94
:100A200000900098B0F5A04F01D0002DF2D03120F9
:100A3000FFF7CCFF08B1012400E00024204638BDB8
:100A400001460020C34A106820F0F80040EAC100C7
:100A500010607047C349086070470021BD4A70327A
:100A600011701170012802D004280AD104E001217C
:100A7000B84A7032117005E00521B64A7032117023
:100A800000E000BF00BF7047B7490860704770B50D
:100A9000049C41EA82150126C6EB530645EA064549
:100AA000054345EA0465AB4E361D356070BDAD4962
:100AB00008667047820142EA0172A64B84331A60CD
:100AC0007047A8498866704710B5830143EA0163FF
:100AD00043EA02739F4C8834236010BDA149086724
:100AE0007047A049C864704702460020994B0833FC
:100AF000186820F0EC6042EA01031843954B083374
:100B00001860704702460020924B0833186820F0A6
:100B1000784042EA010318438E4B0833186070474F
:100B2000014600208B4A0832106820F00300084379
:100B30001060704787480830006800F00C0070476C
:100B400001460020834A0832106820F0F000084374
:100B500010607047014600207E4A0832106820F479
:100B6000E05008431060704701460020794A08327F
:100B7000106820F4604040EAC10010607047F0B592
:100B8000002100220024022500260223714F08378D
:100B90003F6807F00C0121B1042905D0082937D19D
:100BA00005E0724F076036E0714F076033E0694F30
:100BB0003F1D3F68C7F38056664F3F1D3F6807F0F3
:100BC0003F036EB16A4FB7FBF3F7DFF888C10CF152
:100BD000040CDCF800C0CCF3881C07FB0CF40CE020
:100BE000624FB7FBF3F7DFF86CC10CF1040CDCF8D3
:100BF00000C0CCF3881C07FB0CF4564F3F1D3F6828
:100C0000C7F301477F1C7D00B4FBF5F7076002E0E6
:100C1000564F076000BF00BF4E4F08373F6807F0D0
:100C2000F0010909534F7A5C0768D7404760494F84
:100C300008373F6807F4E051890A4E4F7A5C4768ED
:100C4000D7408760434F08373F6807F46041490B3E
:100C5000484F7A5C4768D740C760F0BD002100F478
:100C60004072B2F5407F0AD13A4A0832116821F445
:100C7000F811414A02401143364A08321160354AA0
:100C800070321268C0F30B031A43324B70331A6090
:100C90007047354944390860704733494039086026
:100CA000704736490860704701460020294A8C3257
:100CB000106820F01F004A1E1043264A8C32106034
:100CC000704701460020234A8C32106820F4F85007
:100CD0004A1E40EA02201F4A8C32106070470146CB
:100CE00000201C4A8C32106820F440100843106029
:100CF000704701460020174A8C32106820F44000EB
:100D000008431060704701460020124A8C32106878
:100D100020F440300843106070471949086070475C
:100D200039B10C4A3032126802430A4B30331A6030
:100D300006E0084A303212688243064B30331A60AC
:100D40007047F9B1034A343212680243014B34331D
:100D50001A601CE000380240FFFFF6EA1030002461
:100D60000030002000004742800E47420024F4007B
:100D700000127A0030000020FFFCFF0F5C014742A8
:100D8000E01147428F4A126882438E4B1A607047C7
:100D900039B18C4A121D126802438A4B1B1D1A601E
:100DA00006E0884A121D12688243864B1B1D1A609A
:100DB000704739B1834A0C3212680243814B0C33BD
:100DC0001A6006E07F4A0C32126882437D4B0C3376
:100DD0001A60704739B17B4A103212680243794B6E
:100DE00010331A6006E0774A103212688243754B5E
:100DF00010331A60704739B1724A243A12680243BC
:100E0000704B243B1A6006E06E4A243A1268824313
:100E10006C4B243B1A60704739B16A4A203A126819
:100E20000243684B203B1A6006E0664A203A12688B
:100E30008243644B203B1A60704739B1614A1C3AC7
:100E4000126802435F4B1C3B1A6006E05D4A1C3A85
:100E5000126882435B4B1C3B1A60704739B1594A98
:100E6000143A12680243574B143B1A6006E0554A85
:100E7000143A12688243534B143B1A60704739B1DD
:100E8000504A103A126802434E4B103B1A6006E07B
:100E90004C4A103A126882434A4B103B1A60704722
:100EA00039B1484A1C3212680243464B1C331A605F
:100EB00006E0444A1C3212688243424B1C331A60DB
:100EC000704739B13F4A2032126802433D4B20330C
:100ED0001A6006E03B4A203212688243394B2033C5
:100EE0001A60704739B1374A243212680243354BD1
:100EF00024331A6006E0334A243212688243314BAD
:100F000024331A60704739B12E4A2C3212680243DA
:100F10002C4B2C331A6006E02A4A2C32126882438A
:100F2000284B2C331A60704739B1264A3032126888
:100F30000243244B30331A6006E0224A30321268F2
:100F40008243204B30331A607047012808D11D4975
:100F50003C31096841F008011A4A3C32116007E04F
:100F600018493C31096821F00801164A3C321160E9
:100F7000704739B1134A273A12780243114B273B85
:100F80001A7006E00F4A273A127882430D4B273B2E
:100F90001A7070470B484030006840F08070094973
:100FA00040310860704701460020064A283A12681E
:100FB0000A400AB1012000E00020704701492639AB
:100FC000087070473438024010B50446FE48844229
:100FD00008D101210846FFF752FF00210120FFF749
:100FE0004EFF9DE0B4F1804F08D101210846FFF784
:100FF00035FF00210120FFF731FF91E0F3488442E3
:1010000008D101210220FFF729FF00210220FFF76C
:1010100025FF85E0EE48844208D101210420FFF736
:101020001DFF00210420FFF719FF79E0E948844201
:1010300008D101210820FFF711FF00210820FFF748
:101040000DFF6DE0E448844208D101211020FFF734
:1010500005FF00211020FFF701FF61E0DF48844217
:1010600008D101212020FFF7F9FE00212020FFF701
:10107000F5FE55E0DA48844208D101210220FFF74D
:10108000FEFE00210220FFF7FAFE49E0D548844227
:1010900009D101210804FFF7F2FE00214FF480304E
:1010A000FFF7EDFE3CE0D048844209D1012148041D
:1010B000FFF7E5FE00214FF40030FFF7E0FE2FE0E0
:1010C000CA48844209D101218804FFF7D8FE0021D3
:1010D0004FF48020FFF7D3FE22E0C548844208D1B8
:1010E00001214020FFF7BAFE00214020FFF7B6FEA5
:1010F00016E0C048844208D101218020FFF7AEFEEF
:1011000000218020FFF7AAFE0AE0BB48844207D1F5
:1011100001218015FFF7A2FE0021A015FFF79EFE1A
:1011200010BD00220288A84B98420ED0AC4B9842CA
:101130000BD0B0F1804F08D0A44B984205D0A44BFF
:10114000984202D0A34B984204D14FF68F731A40B5
:101150004B881A43A04B984207D0A04B984204D02A
:101160004FF6FF431A400B891A4302804B68C36253
:101170000B880385944B984202D0994B984201D139
:101180008B7A03860123838270474FF0FF314160E1
:101190000021018001814180817270470185828236
:1011A00070470A46002101884FF68F73194011439A
:1011B0000180704741627047C16270470146486ACA
:1011C00070470146088D704721B1028842F0020243
:1011D000028004E002884FF6FD731A4002807047D7
:1011E00021B1028842F00402028004E002884FF636
:1011F000FB731A400280704721B1028842F08002DE
:10120000028004E002884FF67F731A400280704724
:1012100002884FF6F7731A40028002880A43028060
:10122000704702884FF6FF431A40028002880A4343
:101230000280704721B1028842F00102028004E07E
:1012400002884FF6FE731A400280704770B5002482
:1012500000220023058C4FF6FE7635400584028C73
:101260008388048B4FF68F752C40B51E2C400D885B
:101270002C43751E2A408D892A434D882A43524D9E
:10128000A84202D0564DA84213D14FF6F7752A4016
:10129000CD892A434FF6FB752A408D882A434FF6A5
:1012A000FF652B404FF6FF552B400D8A2B434D8A8F
:1012B0002B43838004838D684563028470BD70B5C1
:1012C000002400220023058C4FF6EF76354005847C
:1012D000028C8388048B48F6FF752C404FF6FF453F
:1012E0002C400D884FF6FF7606EA05252C434FF675
:1012F000DF752A408D8906EA05152A434D8806EADE
:1013000005152A43304DA84202D0354DA8421DD1C3
:101310004FF67F752A40CD894FF6FF7606EA051510
:101320002A434FF6BF752A408D8806EA05152A43E1
:101330004FF6FF352B404FF2FF752B400D8A06EA22
:1013400085052B434D8A06EA85052B43838004835C
:101350008D688563028470BD70B50024002200236F
:10136000058C4FF6FF6635400584028C8388848B9C
:101370004FF68F752C404FF6FC752C400D882C4392
:101380004FF6FF552A408D894FF6FF7606EA052570
:101390002A434D8806EA05252A430B4DA84202D070
:1013A0000F4DA84238D14FF2FF752A40CD894FF634
:1013B000FF7606EA05252A434FF6FF352A408D8839
:1013C00006EA05252A4319E0000001400004004018
:1013D00000080040000C00400010004000140040D5
:1013E0000004014000400140004401400048014029
:1013F00000180040001C0040002000404EF6FF7521
:101400002B404DF6FF752B400D8A06EA05152B4340
:101410004D8A06EA05152B43838084838D68C56356
:10142000028470BD70B5002200230024058C4EF6A6
:10143000FF7635400584038C8488828B48F6FF75DF
:101440002A404FF6FF452A400D884FF6FF7606EA00
:1014500005252A434DF6FF752B408D8906EA053593
:101460002B434D8806EA05352B43FE4DA84202D09A
:10147000FD4DA84208D14BF6FF752C400D8A4FF662
:10148000FF7606EA85152C43848082838D68056487
:10149000038470BD00210180418081808160818151
:1014A000C18101824182704770B50346002000244B
:1014B0001846183001258D40ACB21D8CA5431D8403
:1014C00009B108290AD100EB610005684FF68F7653
:1014D000354005600568154305600FE00D1FC5F335
:1014E0004E052844056848F6FF76354005600568D6
:1014F0004FF6FF7606EA02263543056070BD41636C
:10150000704781637047C1637047016470470A4642
:101510000021018B4FF68F731940114301837047EF
:101520000A460021018B48F6FF7319404FF6FF73FE
:1015300003EA02231943018370470A460021818B85
:101540004FF68F7319401143818370470A4600217B
:10155000818B48F6FF7319404FF6FF7303EA0223AD
:101560001943818370470A460021018B4FF6F773B8
:1015700019401143018370470A460021018B4FF245
:10158000FF7319404FF6FF7303EA022319430183E7
:1015900070470A460021818B4FF6F77319401143BB
:1015A000818370470A460021818B4FF2FF731940F7
:1015B0004FF6FF7303EA02231943818370470A46FB
:1015C0000021018B4FF6FB731940114301837047D3
:1015D0000A460021018B4FF6FF3319404FF6FF7387
:1015E00003EA02231943018370470A460021818BD5
:1015F0004FF6FB7319401143818370470A4600215F
:10160000818B4FF6FF3319404FF6FF7303EA022335
:101610001943818370470A460021018B4FF67F737F
:1016200019401143018370470A460021018BC1F321
:101630000E014FF6FF7303EA02231943018370473B
:101640000A460021818B4FF67F7319401143818335
:1016500070470A460021818BC1F30E014FF6FF73DC
:1016600003EA02231943818370470A460021018C53
:101670004FF6FD7319401143018470470A4600215B
:10168000018C4FF6F77319401143018470470A46E5
:101690000021018C4FF6DF7319404FF6FF7303EA08
:1016A00002131943018470470A460021018C4FF64A
:1016B0007F7319404FF6FF7303EA02131943018445
:1016C00070470A460021018C4FF6FF5319404FF630
:1016D000FF7303EA02231943018470470A4600217D
:1016E000018C4FF2FF7319404FF6FF7303EA022398
:1016F0001943018470470A460021018C4DF6FF739F
:1017000019404FF6FF7303EA02331943018470470F
:1017100030B5002301248C40A3B2048C9C43048484
:10172000048C02FA01F5ADB22C43048430BD30B50F
:10173000002304248C40A3B2048C9C430484048CB6
:1017400002FA01F5ADB22C43048430BD828B4FF216
:10175000FF331A408283828B4FF6FF7303EA012323
:101760001A4382837047F0B50C46154600210022CB
:101770000026078C4EF6FF7C07EA0C070784818B56
:10178000028C4FF6FF7707EA043640F6FF473940F0
:101790004FF6FF7707EA052739434FF6FF7707EA49
:1017A0000337394345F6FF773A4046F480573A43CA
:1017B00081830284F0BD828B4FF6F3731A408283DB
:1017C000828B0A4382837047F0B50C461546002190
:1017D00000220026078C4FF6FF6C07EA0C070784EF
:1017E000818B028C4FF6FF7707EA04264FF60C77C1
:1017F00039404FF6FF7707EA03172F4339434FF27B
:10180000FF573A4046F480773A4381830284F0BD23
:10181000028B4FF2FF331A400283028B4FF6FF73A5
:1018200003EA01231A4302837047F0B50C461546BC
:10183000002100220026078C4FF6EF7C07EA0C07F8
:101840000784018B028C4FF6FF7707EA041640F6F7
:10185000FF4739404FF6FF7707EA033739434FF622
:10186000FF7703E0000001400004014007EA05277C
:1018700039434FF65F773A4046F010073A43018309
:101880000284F0BD028B4FF6F3731A400283028B81
:101890000A4302837047F0B50C461546002100222A
:1018A000068C4FF6FE773E400684018B028C4FF685
:1018B0000C7631407E1C06EA03162E4331434FF668
:1018C000F576324044F00106324301830284F0BDD4
:1018D00070B505460C46208850B92389A2886188D6
:1018E0002846FFF7D8FFE1882846FFF7CBFF25E021
:1018F000208804280AD12389A28861882846FFF716
:1019000094FFE1882846FFF783FF17E02088082826
:101910000AD12389A28861882846FFF755FFE1880C
:101920002846FFF748FF09E02389A28861882846F6
:10193000FFF719FFE1882846FFF708FF70BD002177
:1019400001804180012181800021C1800181704797
:101950002DE9F04105460C4600260127608808B9AC
:10196000022600E00026A088012801D1022700E01D
:1019700001272088A0B92389A28861882846FFF71B
:101980008AFFE1882846FFF77DFF23893A463146E2
:101990002846FFF74AFFE1882846FFF739FF13E0A2
:1019A0002389A28861882846FFF73FFFE1882846FF
:1019B000FFF72EFF23893A4631462846FFF76BFF93
:1019C000E1882846FFF75EFFBDE8F0810146486BDD
:1019D00070470146886B70470146C86B70470146E7
:1019E000086C70470A884B881A438B881A43CB8847
:1019F0001A430B891A434B891A438B891A43A0F85F
:101A0000442070470021018041808180C180018194
:101A100041818181704731B1B0F8442042F40042E5
:101A2000A0F8442005E0B0F84420C2F30E02A0F86C
:101A30004420704721B1828842F00402828004E091
:101A400082884FF6FB731A408280704721B18288EA
:101A500042F00102828004E082884FF6FE731A4051
:101A6000828070471AB183890B43838102E08389A6
:101A70008B43838170478182704702460020138A1E
:101A80000B400BB1012000E000207047CA430282E6
:101A9000704730B50246002000230024158A05EA6D
:101AA0000103958905EA010413B10CB1012000E09E
:101AB000002030BDCA430282704741EA0203A0F809
:101AC000483070471AB183890B43838102E08389D0
:101AD0008B438381704721B1828842F00802828063
:101AE00004E082884FF6F7731A40828070470189BC
:101AF0004FF6F8721140018170470A4600210189B2
:101B00004FF68F73194011430181704730B5044679
:101B10000D4629462046FFF7F0FF208940F00700D8
:101B2000208130BD2DE9F04104460D4616461F4682
:101B3000602D06D13B46012231462046FFF775FE57
:101B400005E03B46012231462046FFF7A4FE294628
:101B50002046FFF7D2FF208940F007002081BDE832
:101B6000F08130B50C4600210189C9B24FF6FF75EE
:101B700005EA0325154325432943018130BD2DE99D
:101B8000F04105460E4617469846002443463A461D
:101B900031462846FFF7E5FF2C894FF6F8700440E0
:101BA00044F007044FF68F70044044F070042C8119
:101BB000BDE8F081F0B504460D4616461F463B468B
:101BC000324629462046FFF7CCFF208940F480406A
:101BD0002081F0BD82884FF68F731A408280828800
:101BE0000A438280704702894FF6F8731A400281D7
:101BF00002890A430281704702894FF67F731A40B7
:101C0000028102890A4302817047F0B50C461546ED
:101C10001E460021002200230189028B038C4FF60F
:101C2000F877394021434FF6FC473A4040F201171C
:101C30003A434FF6DD773B404FF6FF7707EA06174A
:101C40002F433B43018102830384F0BD21B182888D
:101C500042F08002828004E082884FF67F731A404F
:101C600082807047A0F850107047000010B50446FD
:101C7000FA48844208D101211020FFF700F9002121
:101C80001020FFF7FCF857E0F548844209D1012104
:101C90004804FFF7E3F800214FF40030FFF7DEF8C7
:101CA0004AE0F048844209D101218804FFF7D6F8C0
:101CB00000214FF48020FFF7D1F83DE0EA4884424C
:101CC00009D10121C804FFF7C9F800214FF4002011
:101CD000FFF7C4F830E0E548844209D10121080546
:101CE000FFF7BCF800214FF48010FFF7B7F823E0AE
:101CF000DF48844208D101212020FFF7C0F80021ED
:101D00002020FFF7BCF817E0DA48844209D101210E
:101D10008807FFF7A3F800214FF08040FFF79EF8F7
:101D20000AE0D548844207D101214005FFF796F823
:101D300000216005FFF792F810BD2DE9FF47054629
:101D40000E460024A14600BFA046B08900B100BFE6
:101D50002C8A24F44054F08804432C82AC8941F24C
:101D60000C608443B0883189084371890843044377
:101D7000AC81AC8A24F44074B0890443AC826846D8
:101D8000FEF7FDFEB548854202D0B948854202D132
:101D9000DDF80C9001E0DDF80890A88900F400401F
:101DA00040B109EBC90000EB091031684900B0FBF4
:101DB000F1F707E009EBC90000EB09103168890071
:101DC000B0FBF1F76420B7FBF0F0040120096421B7
:101DD00001FB1078A88900F4004040B1322000EBEC
:101DE000C800B0FBF1F000F00700044308E0322027
:101DF00000EB08106421B0FBF1F000F00F00044389
:101E00002C81BDE8FF874FF41651016000218180CD
:101E1000C18001810C21418100218181704710B571
:101E200002460020108A20F470600B884C882343FF
:101E30008C882343CC8823431843108210BD002193
:101E4000018041808180C180704721B1828942F444
:101E50000052828104E082894DF6FF731A4082812C
:101E60007047028B02F47F420283028B0A43028393
:101E7000704721B1828942F40042828103E0828965
:101E8000C2F30E028281704721B1828A42F400625D
:101E9000828204E0828A4FF2FF731A408282704786
:101EA000C1F308028280704701468888C0F30800A9
:101EB0007047028A4FF6F0731A400282028A0A4380
:101EC0000282704721B1828942F00202828104E0DD
:101ED00082894FF6FD731A408281704782894FF2E2
:101EE000FF731A40828182890A4382817047028A85
:101EF0004FF6DF731A400282028A0A430282704759
:101F000021B1028A42F48042028204E0028A4BF646
:101F1000FF731A4002827047818941F0010181817B
:101F2000704721B1828A42F00802828204E0828AEC
:101F30004FF6F7731A4082827047028BD2B2028347
:101F4000028B42EA01220283704721B1828A42F069
:101F50002002828204E0828A4FF6DF731A40828276
:101F6000704721B1828A42F01002828204E0828AA4
:101F70004FF6EF731A4082827047828A4FF6FB73E6
:101F80001A408282828A0A438282704721B1828A01
:101F900042F00202828204E0828A4FF6FD731A4008
:101FA000828270471AB1838A0B43838202E0838A5C
:101FB0008B4383827047F0B503460024002600253A
:101FC000002040F66A17B94200D100BF1846C1F39D
:101FD000421401F01F06012707FA06F5012C01D172
:101FE0000C3004E0022C01D1103000E014301AB1A2
:101FF00007682F43076002E00768AF430760F0BD42
:1020000002460020B1F5007F00D100BF13880B40CD
:102010000BB1012000E00020704701F40072B2F51E
:10202000007F00D100BFCA430280704770B50246EE
:10203000002400230025002040F66A16B14200D19A
:1020400000BFC1F3421501F01F03012606FA03F396
:10205000012D13D19689334017E000000010014094
:102060000044004000480040004C00400050004048
:102070000014014000780040007C0040022D02D195
:10208000168A334001E0968A33400C12012606FA84
:1020900004F41688344013B10CB1012000E0002094
:1020A00070BD10B50022002340F66A14A14200D191
:1020B00000BF0A1201249440A3B2DC43048010BD87
:1020C00010B504466FF00400FEF7E8FAE11704EBE0
:1020D0005171C1F3C701394A11701046007800EB05
:1020E0004001C1EBC0104FF6FF7101EAC000344956
:1020F000088010BD0146314A12784A434FF0E02370
:102100005A6100229A611A46126942F001021A616C
:1021100000BF4FF0E022106900F001021AB100F494
:102120008032002AF5D04FF0E022126922F001023D
:102130004FF0E0231A6100229A6170470146204A5D
:1021400012884A434FF0E0235A6100229A611A46EE
:10215000126942F001021A6100BF4FF0E0221069DB
:1021600000F001021AB100F48032002AF5D04FF0DD
:10217000E022126922F001024FF0E0231A610022EE
:102180009A61704770B504464FF4077094FBF0F005
:10219000C6B24FF4077094FBF0F100FB114085B21A
:1021A00005E04FF40770FFF7C9FF701EC6B2002E9E
:1021B000F7D115B12846FFF7C1FF70BD40000020E0
:1021C000420000201CB501210820FEF7A9FD802057
:1021D000009001208DF8040000208DF806000320F7
:1021E0008DF8050002208DF8070069460148FEF7CA
:1021F000F9FA1CBD000C024087B0F0EE402ACDED8C
:10220000022ACDED030A8DED041A31EEC20A8DEDDE
:10221000000A9DED000A9FEDAF3AB4EEC30AF1EE5D
:1022200010FA14DB9DED000A9FEDAB3AB4EEC30A41
:10223000F1EE10FA0BD89FEDA90A8DED000A9FED83
:10224000A70A8DED050A9FEDA50A8DED010A9DED0A
:10225000000A9FEDA33AB4EEC30AF1EE10FA2BDDAB
:102260009DED000A9FED9F3AB4EEC30AF1EE10FA1D
:1022700022D29DED050A9DED003A30EE030A8DED68
:10228000050A9DED050A9FED983AB4EEC30AF1EEFA
:1022900010FA04DD9FED940A8DED050A0CE09DED2A
:1022A000050A9FED923AB4EEC30AF1EE10FA03D29A
:1022B0009FED8E0A8DED050A9DED020A9DED003A17
:1022C00020EE030A9DED033ADDED053A03EE230A05
:1022D0009DED003ADDED013A33EE633ADDED043A6F
:1022E00003EE830ABDEEC00A8DED060A9DED000ADD
:1022F0008DED010A9DED060AB8EEC00A07B07047E1
:1023000087B0F0EE402ACDED022ACDED030A8DED27
:10231000041A31EEC20A8DED000A9DED000AB9EEF5
:10232000043AB4EEC30AF1EE10FA14DD9DED000A92
:10233000B1EE043AB4EEC30AF1EE10FA0BD29FEDFF
:10234000670A8DED000A9FED650A8DED050A9FED88
:10235000630A8DED010A9DED000A9FED653AB4EE2A
:10236000C30AF1EE10FA2BDD9DED000A9FED613AF4
:10237000B4EEC30AF1EE10FA22D29DED050A9DEDEE
:10238000003A30EE030A8DED050A9DED050A9FED3A
:102390005A3AB4EEC30AF1EE10FA04DD9FED560A84
:1023A0008DED050A0CE09DED050A9FED543AB4EE63
:1023B000C30AF1EE10FA03D29FED500A8DED050A23
:1023C0009DED020A9DED003A20EE030A9DED033AD1
:1023D000DDED053A03EE230A9DED003ADDED013A0D
:1023E00033EE633ADDED043A03EE830ABDEEC00A34
:1023F0008DED060A9DED000A8DED010A9DED060AA0
:10240000B8EEC00A07B0704787B08DED020ACDED77
:10241000030A8DED041ACDED001A9DED022ADDEDC3
:10242000002A22EE222ADDED032A9DED053A02EE76
:10243000832ADDED002A9DED013A72EEC32A9DED5F
:10244000043A03EE222ABDEEC22A8DED062A9DED46
:10245000002A8DED012A069807B0704787B0B0EECC
:10246000402A8DED022ACDED030A8DED041ACDED43
:10247000001A9DED020ADDED002A20EE220ADDEDB4
:10248000032A9DED053A02EE830ADDED002A9DED5B
:10249000013A72EEC32A9DED043A03EE220ABDEE24
:1024A000C00A8DED060A9DED000A8DED010A069821
:1024B000962803DB9FED120A07B07047069810F1CB
:1024C000960F02DC9FED0F0AF6E79DED060AB8EEC7
:1024D000C00AF1E7000070C2000070420000000076
:1024E000000048C30000484300004844000048C4BE
:1024F0000000C8C20000C84200008243000082C33E
:1025000000001643000016C31CB501211820FEF779
:1025100007FC44F61540009001208DF804000020CF
:102520008DF8060003208DF8050001208DF80700C6
:1025300069465548FEF756F9902000906946534881
:10254000FEF750F91CBD0146B1F57A7F02DD4FF46C
:102550007A70704711F57A7F01DA4D48F9E708463D
:10256000F7E70146002901DD084670474842FCE7CD
:102570002DE9F04106460F4614461D463046FFF74A
:10258000E2FF00280BDB012042490860002042499D
:10259000C1F8900231464148FEF7B1FF0EE000203D
:1025A0003C49086001203C49C1F890023046FFF7E1
:1025B000D8FF804641463948FEF7A1FF3846FFF76D
:1025C000C2FF00280CDB01203249303908600020AE
:1025D0003149C1F8800239463048FEF792FF0FE0DA
:1025E00000202C493039086001202B49C1F88002B5
:1025F0003846FFF7B6FF804641462848FEF781FF80
:102600002046FFF7A0FF00280BDB012024490860CB
:1026100000202449C1F89C0221462348FEF76FFFA1
:102620000EE000201E49086001201E49C1F89C02EE
:102630002046FFF796FF804641461B48FEF75FFFA6
:102640002846FFF780FF00280CDB012011491039D4
:10265000086000201049C1F8AC0229461348FEF773
:102660004EFF0FE000200B491039086001200A4995
:10267000C1F8AC022846FFF774FF804641460B487C
:10268000FEF73DFFBDE8F081000C02400010024063
:1026900018FCFFFFB88241420080414200400140E7
:1026A0009002424200004242004401400048014082
:1026B00000B58BB001210804FEF78CFB012110202E
:1026C000FEF72EFB6020099002208DF828000320E1
:1026D0008DF8290000208DF82A0001208DF82B00AC
:1026E00009A96D48FEF77EF8032205216A48FEF726
:1026F00004F9032206216848FEF7FFF85320ADF8DD
:1027000018000020ADF81A004FF47A7007900020EE
:10271000ADF8200006A96148FEF703FD7020ADF872
:1027200004000120ADF806000220ADF8100001A958
:102730005A48FEF78BFD01A95848FEF7C0FD082155
:102740005648FEF710FF08215448FEF715FF0121F7
:102750005248FEF751FD01215048FEF76BFD0BB0CA
:1027600000BD00B58BB001214804FEF733FB012109
:102770000220FEF7D5FA4FF48070099002208DF800
:10278000280003208DF8290000208DF82A00012060
:102790008DF82B0009A94248FEF724F803220821EE
:1027A0003F48FEF7AAF85320ADF818000020ADF816
:1027B0001A004FF47A7007900020ADF8200006A9A7
:1027C0003848FEF7AEFC7020ADF804000120ADF8EB
:1027D00006000220ADF8100001A93248FEF736FDD0
:1027E00008213048FEF7BFFE01212E48FEF704FD08
:1027F00001212C48FEF71EFD0BB000BD00B58BB0CB
:1028000001218804FEF7E6FA01210220FEF788FA8A
:102810004FF40070099002208DF8280003208DF8F5
:10282000290000208DF82A0001208DF82B0009A92D
:102830001B48FDF7D7FF032209211948FEF75DF871
:102840005320ADF818000020ADF81A004FF47A704C
:1028500007900020ADF8200006A91348FEF761FCA0
:102860007020ADF804000120ADF806000220ADF89C
:10287000100001A90C48FEF7E9FC08210A48FEF700
:1028800072FE01210848FEF7B7FC01210648FEF759
:10289000D1FC0BB000BD0000001002400040014020
:1028A0000004024000440140004801401CB50121E1
:1028B0001020FEF735FA01210820FEF731FA012138
:1028C0000420FEF72DFA4FF41540009001208DF8FA
:1028D000040000208DF8060003208DF8050002207A
:1028E0008DF807006946FE48FDF77CFF4FF415415F
:1028F000FB48FDF7F5FF0A20009001208DF8040049
:1029000000208DF8060003208DF8050002208DF8C8
:1029100007006946F348FDF765FF0A21F148FDF716
:10292000DFFF41F20800009001208DF80400002034
:102930008DF8060003208DF8050002208DF80700B1
:102940006946E948FDF74EFF41F20801E648FDF708
:10295000C7FF1CBD2DE9F041E448007800F080007D
:1029600098B1E248007800F03F00C117E04A03C286
:10297000DF48D0E90031DF480068181841F1000154
:10298000083A03C20020D9490870D9484FF4AA7206
:10299000D0E900310020A3FB026801FB028103FBA8
:1029A000001102220346304603F099FD044642F22C
:1029B0001072002303F093FDCF4A03C2CF4B0522D0
:1029C000CD48008801B2CE4801F0D7F8CD48007854
:1029D00000F08000A0B1CB48007800F03F00C117A4
:1029E000C94A03C2C848D0E90030C8490968591823
:1029F00040F10000083AC2E900100020C149087007
:102A0000C148D0E900104FF4AA730022A1FB03686B
:102A100000FB038001FB020102220023304603F089
:102A20005EFD044642F21072002303F058FDB84ADE
:102A300003C2B24B9B1C0522B548008801B2B548C1
:102A400001F09BF8B448007800F0800070B1B24803
:102A5000007800F03F00C117B04A03C2B0480068D8
:102A60000021083A03C20020AB490870AB494FF47B
:102A7000AA7305C90021A0FB036802FB038200FBC7
:102A8000012702220B463046394603F028FD044652
:102A900042F21072002303F022FDA24A03C2974BB8
:102AA0001B1D05229F48008801B29F4801F065F870
:102AB0009E48007800F08000A0B19C48007800F0AB
:102AC0003F00C1179A4A03C29948D0E9003099499A
:102AD0000968591840F10000083AC2E900100020C6
:102AE000924908709248D0E900104FF4AA7300226E
:102AF000A1FB036800FB038001FB0201022200230B
:102B0000304603F0ECFC044642F21072002303F05E
:102B1000E6FC894A03C2794B9B1D05228648008842
:102B200001B2864801F029F88548007800F080005D
:102B3000A0B18348007800F03F00C117814A03C26A
:102B40008048D0E9003080490968591840F10000F8
:102B5000083AC2E90010002079490870794903C990
:102B60004FF4AA7C0022A0FB0C6801FB0C8100FB47
:102B7000021102220023304603F0B1FC044642F267
:102B80001072002303F0ABFC704A03C25B4B0833A6
:102B900005226E48008801B26D4800F0EEFF6D48D6
:102BA000007800F08000A0B16A48007800F03F0093
:102BB000C117694A03C26848D0E90030674909680B
:102BC000591840F10000083AC2E90010002061499C
:102BD000087061484FF4AA714FF0000C0CC8A2FBBA
:102BE000016803FB018102FB0C110222634630469F
:102BF00003F075FC044642F21072002303F06FFCF0
:102C0000574A03C23D4B0A3305225548008801B29A
:102C1000544800F0B2FF5448007800F0800070B1D2
:102C20005148007800F03F00C117504A03C2504895
:102C300000680021083A03C200204B4908704B4944
:102C40004FF4AA734FF0000C05C9A0FB036802FB08
:102C5000038200FB0C2102226346304603F03FFC56
:102C6000044642F21072002303F039FC414A03C2C9
:102C7000224B0C3305223F48008801B23E4800F049
:102C80007CFF3E48007800F08000A0B13B4800780F
:102C900000F03F00C1173A4A03C23948D0E900307A
:102CA00038490968591840F10000083AC2E9001093
:102CB0000020324908703248D0E900214FF4AA7050
:102CC0000023A2FB006801FB008002FB030102223B
:102CD000304603F004FC044642F21072002353E035
:102CE00000100240000C0240000802404800002092
:102CF000880000204C000020C8000020E8010020CF
:102D0000F801002050000020900000205400002016
:102D1000D00000201C020020580000209800002055
:102D20005C000020D800002040020020600000204D
:102D3000A000002064000020E000002064020020C9
:102D400068000020A80000206C000020E80000209F
:102D50008802002070000020B000002074000020D5
:102D6000F0000020AC02002078000020B800002015
:102D70007C000020F8000020D0020020800000200D
:102D8000C00000208400002003F0A9FBFC4A03C21D
:102D9000FC4B0522FA48008801B2FB4800F0EDFE2A
:102DA000F8480E38B0F90000FF2804DDFF20F5498F
:102DB0000E39088005E0F3480E380088F1490E39D5
:102DC0000880F0480E38B0F90200FF2804DDFF202B
:102DD000EC490E39488005E0EA480E384088E94958
:102DE0000E394880E7480E38B0F90400FF2804DDAA
:102DF000FF20E4490E39888005E0E2480E388088DB
:102E0000E0490E398880DF480E38B0F90600FF2807
:102E100004DDFF20DB490E39C88005E0D9480E38B3
:102E2000C088D8490E39C880D6480E38B0F9080095
:102E3000FF2804DDFF20D3490E39088105E0D14881
:102E40000E380089CF490E390881CE480E38B0F9C6
:102E50000A00FF2804DDFF20CA490E39488105E039
:102E6000C8480E384089C7490E394881C5480E38D0
:102E7000B0F90C00FF2804DDFF20C2490E3988811B
:102E800005E0C0480E388089BE490E398881BD48AA
:102E90000E38B0F90E00FF2804DDFF20B9490E39C5
:102EA000C88105E0B7480E38C089B6490E39C881D7
:102EB000BDE8F08130B589B004460D4601210820F7
:102EC000FDF777FF01210846FDF72AFF0F20079045
:102ED00002208DF820008DF8230003208DF82100BA
:102EE00007A9AA48FDF77EFC0F21A848FDF7F8FCCA
:102EF00002220021A548FDF700FD02220121A3487E
:102F0000FDF7FBFC02221146A048FDF7F6FC022269
:102F100003219E48FDF7F1FCADF810500020ADF8FC
:102F200012000594ADF8180004A99948FEF7F9F8C5
:102F30000020ADF80000ADF802000120ADF804005B
:102F40000020ADF80600ADF8080069469048FEF78D
:102F5000BFFC0420ADF8000069468D48FEF7B8FCC0
:102F60000820ADF8000069468948FEF7B1FC0C2046
:102F7000ADF8000069468648FEF7AAFC012211461A
:102F80008348FEF76FFD012202218148FEF76AFDAA
:102F9000012204217E48FEF765FD012208217C48BC
:102FA000FEF760FD012210217948FEF75BFD01214B
:102FB0007748FEF73FF932208DF80C0001208DF89C
:102FC0000D008DF80E008DF80F0003A8FDF719FB1A
:102FD00009B030BD30B589B004460D460121084620
:102FE000FDF7F8FE01211020FDF79AFE4FF4D440C2
:102FF000079002208DF820008DF8230003208DF823
:10300000210007A96348FDF7EDFB4FF4D441614867
:10301000FDF766FC012209215E48FDF76EFC0122E6
:103020000B215C48FDF769FC01220D215948FDF791
:1030300064FC01220E215748FDF75FFCADF81050EB
:103040000020ADF812000594ADF8180004A952480C
:10305000FEF767F80020ADF80000ADF8020001208F
:10306000ADF804000020ADF80600ADF80800694690
:103070004948FEF72DFC0420ADF800000020ADF813
:1030800002000120ADF804000020ADF80600ADF804
:10309000080069464048FEF71BFC0820ADF8000018
:1030A0000020ADF802000120ADF804000020ADF8CA
:1030B0000600ADF8080069463748FEF709FC0C2009
:1030C000ADF800000020ADF802000120ADF80400CA
:1030D0000020ADF80600ADF8080069462E48FEF75E
:1030E000F7FB012211462C48FEF7BCFC012202210D
:1030F0002948FEF7B7FC012204212748FEF7B2FC5D
:10310000012208212448FEF7ADFC012210212248AB
:10311000FEF7A8FC01212048FEF78CF81B208DF853
:103120000C0001208DF80D008DF80E008DF80F00B9
:1031300003A8FDF766FA09B030BD10B5174800784E
:1031400000F08000002867D101211148FEF7A1FCA2
:10315000A8B11248007800F0400080B10F48007814
:1031600000F03F003F281DD10C48007840F080005F
:103170000A4908704FF0FF300949086017E016E06F
:1031800000010020F6010020F402002000000240AF
:10319000000C0040001002400000014048000020E8
:1031A0004C000020FE480078401CFD4908700221B8
:1031B000FC48FEF76EFC78B3F948007800F0400058
:1031C00078B1F748007840F08000F5490870F5487C
:1031D000FEF7FCFBF44908600021F248FEF745FACF
:1031E0001AE00020EE490870EF490860EC480078CA
:1031F00040F04000EA4908700021EA48FEF71AF85A
:103200000021E848FDF7D6FF0221E648FEF72DFA37
:103210000121E448FEF70EF8E448007800F0800051
:10322000002854D10121DF48FEF733FCD0B1DF483C
:10323000007800F04000A8B1DC48007800F03F00C2
:103240003F280AD1D948007840F08000D74908705B
:103250004FF0FF30D649086004E0D4480078401CA5
:10326000D24908700421CF48FEF713FC78B3CF4849
:10327000007800F0400078B1CC48007840F0800041
:10328000CA490870C748FEF7A4FBC9490860002175
:10329000C448FEF7FCF91AE00020C4490870C4498C
:1032A0000860C248007840F04000C0490870002122
:1032B000BC48FDF7BFFF0021BA48FDF77BFF0221A4
:1032C000B848FEF7E4F90121B648FDF7B3FFB94865
:1032D000007800F08000002854D10121B148FEF7A9
:1032E000D8FBD0B1B348007800F04000A8B1B14895
:1032F000007800F03F003F280AD1AE48007840F047
:103300008000AC4908704FF0FF30AB49086004E022
:10331000A8480078401CA74908700821A148FEF77A
:10332000B8FB78B3A348007800F0400078B1A1481A
:10333000007840F080009F4908709A48FEF74CFBE7
:103340009D49086000219748FEF7BBF91AE000206C
:1033500098490870984908609648007840F0400005
:103360009449087000218F48FDF764FF00218D48C3
:10337000FDF720FF02218B48FEF7A3F901218948C0
:10338000FDF758FF8D48007800F08000002854D1E8
:1033900001218448FEF77DFBD0B18848007800F019
:1033A0004000A8B18548007800F03F003F280AD1CE
:1033B0008248007840F08000804908704FF0FF306C
:1033C0007F49086004E07D480078401C7B49087014
:1033D00010217448FEF75DFB78B37848007800F060
:1033E000400078B17548007840F08000734908705B
:1033F0006C48FEF7F4FA7249086000216948FEF74C
:103400007AF91AE000206D4908706D4908606B4830
:10341000007840F040006949087000216148FDF7DC
:1034200009FF00215F48FDF7C5FE02215D48FEF758
:1034300062F901215B48FDF7FDFE1F215948FEF7A7
:1034400039FB10BD10B55F48007800F080000028FF
:1034500054D101215C48FEF71CFBD0B159480078DB
:1034600000F04000A8B15748007800F03F003F2826
:103470000AD15448007840F08000524908704FF655
:10348000FF705249086004E04E480078401C4D49E6
:10349000087002214C48FEF7FCFA78B349480078DE
:1034A00000F0400078B14748007840F0800045497E
:1034B00008704548FEF78AFA4449086000214248EE
:1034C000FEF7D3F81AE000203E4908703F49086033
:1034D0003C48007840F040003A49087000213A48E2
:1034E000FDF7A8FE00213848FDF764FE02213648AA
:1034F000FEF7BBF801213448FDF79CFE3448007804
:1035000000F08000002873D101212F48FEF7C1FA96
:10351000D0B12F48007800F04000A8B12C480078C6
:1035200000F03F003F280AD12948007840F0800091
:10353000274908704FF6FF702649086004E02448C8
:103540000078401C2249087004211F48FEF7A1FAA8
:1035500020B31F48007800F0400078B11C48007884
:1035600040F080001A4908701748FEF732FA1949EE
:10357000086000211448FEF78AF839E00020144959
:103580000870144908601248007840F04000104963
:10359000087000210C48FDF74DFE1DE028E00000FA
:1035A00048000020000C00404C000020500000208B
:1035B00054000020580000205C0000206000002023
:1035C0006400002068000020000001406C00002022
:1035D00070000020740000200021DE48FDF7EAFDA5
:1035E0000221DC48FEF753F80121DA48FDF722FEFC
:1035F000D948007800F08000002854D10121D54836
:10360000FEF747FAD0B1D448007800F04000A8B1E6
:10361000D148007800F03F003F280AD1CE4800781A
:1036200040F08000CC4908704FF6FF70CB4908602D
:1036300004E0C9480078401CC74908700821C54803
:10364000FEF727FA78B3C448007800F0400078B15C
:10365000C148007840F08000BF490870BD48FEF7BF
:10366000BBF9BE4908600021BA48FEF72AF81AE003
:103670000020B9490870B9490860B748007840F09F
:103680004000B54908700021B248FDF7D3FD002184
:10369000B048FDF78FFD0221AE48FEF712F8012178
:1036A000AC48FDF7C7FDAE48007800F08000002868
:1036B00054D10121A748FEF7ECF9D0B1A848007811
:1036C00000F04000A8B1A648007800F03F003F2875
:1036D0000AD1A348007840F08000A14908704FF655
:1036E000FF70A049086004E09D480078401C9C4998
:1036F000087010219748FEF7CCF978B39848007805
:1037000000F0400078B19648007840F0800094497D
:1037100008709048FEF763F99249086000218D48CF
:10372000FDF7E9FF1AE000208D4908708D49086017
:103730008B48007840F04000894908700021854896
:10374000FDF778FD00218348FDF734FD0221814813
:10375000FDF7D1FF01217F48FDF76CFD1F217D485A
:10376000FEF7A8F910BD10B54FF400417E48FDF7F3
:10377000B5F80F20FEF7BEFC4FF400417A48FDF784
:10378000AFF84FF480517848FDF7A8F80F20FEF706
:10379000B1FC4FF480517448FDF7A2F84FF48061FA
:1037A0007148FDF79BF80F20FEF7A4FC4FF48061F1
:1037B0006D48FDF795F802216C48FDF78FF80F2052
:1037C000FEF798FC02216948FDF78AF84FF48071F2
:1037D0006548FDF783F80F20FEF78CFC4FF48071ED
:1037E0006148FDF77DF808216048FDF777F80F2064
:1037F000FEF780FC08215D48FDF772F84FF4805118
:103800005B48FDF76BF80F20FEF774FC4FF4805116
:103810005748FDF765F808215548FDF75FF80F2078
:10382000FEF768FC08215248FDF75AF810BD10B5A4
:103830004FF400414C48FDF753F84FF480514A488B
:10384000FDF74EF84FF480614748FDF749F8022133
:103850004648FDF745F84FF480714348FDF740F8BE
:1038600008214248FDF73CF84FF480514048FDF7ED
:1038700037F808213E48FDF733F810BD1CB501208C
:103880000821CDE900103B48B0F9002003231421A2
:10389000002001F0E0FD01200821CDE900103548AD
:1038A000B0F9022003231E21002001F0D4FD0120E5
:1038B0000821CDE900102F48B0F904200323282166
:1038C000002001F0C8FD01200821CDE900102948A1
:1038D000B0F9062003233221002001F0BCFD0120B5
:1038E0000821CDE900102348B0F908200323142152
:1038F0001E2001F0B0FD01200821CDE900101D4877
:10390000B0F90A2003231E21084601F0A4FD01207E
:103910000821CDE900101748B0F90C200323282115
:103920001E2001F098FD01200821CDE9001011486A
:10393000B0F90E20032332211E2001F08CFD1CBDA6
:10394000421802EBD2735B1000EE103AB8EEC00AD8
:103950007047000000000140780000207C0000203B
:10396000800000208400002000100240000C024073
:1039700000080240E801002030B503460C46DFEDA8
:10398000B90AB0EE600A002113F8325F1878401CC3
:1039900003F8320923F8154093F83200904202DB15
:1039A000002083F8320000210BE033F9110000EE13
:1039B000900AF8EEE00A70EE800AB0EE600A481C49
:1039C000C1B29142F1DB00EE902AF8EE600A80EE7F
:1039D000201AFDEEC10A10EE900A30BD10B5F0EECF
:1039E000400A9FEDA00AB0EE401A002290F89041E4
:1039F000631C80F8903100EB8403C3ED000A90F85B
:103A000090318B4202DB002380F89031002209E0E4
:103A100000EB820393ED000A30EE010AB0EE401A8B
:103A2000531CDAB28A42F3DB00EE101AF8EE401AA9
:103A300081EE210A10BD30B50B469FED8A0AF0EEEB
:103A4000400A002110F8325F0478641C00F8324903
:103A500020F8153090F83240944202DB002480F8C0
:103A60003240B0F90040804D2C80804D2C800121E7
:103A700017E030F911407D4DB5F90050AC4203DD3F
:103A800030F81140794D2C8030F91140764DB5F960
:103A90000050AC4203DA30F81140734D2C804C1CBE
:103AA000E1B29142E5DB00210BE030F9114000EE7C
:103AB000104AB8EEC00A30EE200AF0EE400A4C1C64
:103AC000E1B29142F1DB694CB4F90040664DB5F9C1
:103AD00000502C4400EE104AB8EEC00A30EEC00A86
:103AE000F0EE400A941E00EE104AB8EEC01A80EEC6
:103AF000810A30BD70B50C460021DFED5A0AB0EEE8
:103B0000600A4678751C4570851D25F816400578B5
:103B1000DDB100BF0BE0851D35F9115000EE905A64
:103B2000F8EEE00A70EE800AB0EE600A491C91429D
:103B3000F1D300EE902AF8EE600A80EE201AFDEE36
:103B4000C10A10EE905A2DB245800578012D0CD196
:103B5000B0F9025041F28836B54204DA45881D803A
:103B60004588858001E085881D804578954203D190
:103B7000012505700025457070BD70B50C4600210B
:103B8000DFED380AB0EE600A4678751C4570851D79
:103B900025F816400578002D4CD0C588ADB2344EBE
:103BA0003580344E3580012118E0851D35F91150DE
:103BB000304E3688B54204DD851D35F811502D4E46
:103BC0003580851D35F91150294E3688B54204DA05
:103BD000851D35F81150264E3580491C9142E4D39D
:103BE00000210BE0851D35F9115000EE905AF8EEDA
:103BF000E00A70EE800AB0EE600A491C9142F1D3EF
:103C00001C4D2D881A4E3688354400EE905AF8EE39
:103C1000E00A70EE600AB0EE600A951E00EE905A5F
:103C2000F8EEE00A80EE201AFDEEC10A10EE905A7E
:103C30002DB245800578012D0CD1B0F9025041F22A
:103C40008836B54204DA45881D804588858001E0C4
:103C500085881D804578954203D101250570002592
:103C6000457070BD000000000A010020080100201E
:103C70000E0100200C01002000B58BB00121084688
:103C8000FDF74EF801210220FDF74AF80121084610
:103C9000FDF78FF802208DF828008003099003209B
:103CA0008DF8290000208DF82A0001208DF82B00C6
:103CB00009A9F748FCF796FD02208DF8280040F688
:103CC0000840099003208DF8290000208DF82A0073
:103CD00001208DF82B0009A9EE48FCF783FD012295
:103CE0000F21EB48FCF709FE01220321E948FCF70C
:103CF00004FE01220A21E748FCF7FFFD01220B2107
:103D0000E448FCF7FAFD0020ADF8200044F62060FE
:103D100007905320ADF818000020ADF81A0006A94E
:103D20004FF08040FDF7FDF97020ADF8040002204F
:103D3000ADF810000120ADF8060001A98007FDF7DD
:103D400085FA01A94FF08040FDF7B9FA01A94FF0BB
:103D50008040FDF701FB01A94FF08040FDF762FBB9
:103D60000821C806FDF7FFFB0821C806FDF704FC83
:103D70000821C806FDF70DFC0821C806FDF712FC56
:103D800001218807FDF738FA01218807FDF752FA6B
:103D90000BB000BD00B58BB001210420FCF7C0FFC3
:103DA00001210220FDF716F802208DF82800C0201E
:103DB000099003208DF8290000208DF82A000120A9
:103DC0008DF82B0009A9B448FCF70CFD032206214D
:103DD000B148FCF792FD03220721AF48FCF78DFDA7
:103DE0000020ADF82000ADF81A0044F61F600790DF
:103DF000A720ADF8180000208DF8220006A9A748DA
:103E0000FDF78FF9002003907020ADF80400012029
:103E1000ADF806000020ADF808000220ADF8100053
:103E20000820ADF812004001ADF814000020ADF8F4
:103E3000160001A99948FDF709FA01A99748FDF76D
:103E40003EFA08219548FDF78EFB08219348FDF7BF
:103E500093FB01219148FDF7CFF901218F48FDF730
:103E6000DAFD01218D48FDF7E5F90BB000BD00B585
:103E70008BB001210846FCF753FF01210802FCF733
:103E800098FF02208DF828008020099003208DF8EB
:103E9000290000208DF82A0001208DF82B0009A9A7
:103EA0007B48FCF79FFC092207217948FCF725FD98
:103EB0000020ADF8200044F61F6007905320ADF8B5
:103EC00018000020ADF81A0006A97548FDF729F979
:103ED0007020ADF804000220ADF810000120ADF80C
:103EE000060001A96E48FDF7B1F908216C48FDF7FD
:103EF0003AFB01216A48FDF77FF901216848FDF787
:103F000099F90BB000BD70B52DED068B0446204627
:103F100002F09EFC41EC1A0B9FED620B53EC102B50
:103F200002F0B5FB41EC190B9FED600B53EC102B2D
:103F300002F006FB41EC180B02F097FC0546284600
:103F4000BDEC068B70BD2DE9F05F04460D461646AC
:103F50001F46E0B2FFF7D7FF8046E8B2FFF7D3FF76
:103F60008146F0B2FFF7CFFF8246F8B2FFF7CBFFF2
:103F7000834641464FF08040FDF7C1FA49464FF075
:103F80008040FDF7BEFA51464FF08040FDF7BBFA86
:103F900059464FF08040FDF7B8FABDE8F09F70B584
:103FA00004460D46E8B2FFF7AEFF0646012C06D0E8
:103FB000022C0AD0032C0ED0042C18D111E031466B
:103FC0004FF08040FDF79BFA11E031464FF0804002
:103FD000FDF797FA0BE031464FF08040FDF793FA7A
:103FE00005E031464FF08040FDF78FFA00BF00BF7B
:103FF00070BD2DE9F04706460C4615463046FFF7E2
:1040000082FF07462046FFF77EFF8046E8B2FFF7B3
:104010007AFF814639462148FDF771FA41461F482B
:10402000FDF76FFA49461E48FDF769FABDE8F087CB
:104030002DE9F0478046894692461F4608F0FF006A
:10404000FFF761FF054609F0FF00FFF75CFF06463A
:10405000BAF1010F09D0BAF1020F37D0BAF1030F4C
:1040600052D0BAF1040F30D16CE0B5420DDA2C46D3
:1040700008E021464FF08040FDF741FAB8B2FEF764
:1040800081F8641CB442F4DD1FE02C461BE0000004
:104090000000024000040240000802400004014009
:1040A00000200040A3737E8AE33826400000000011
:1040B00000407F4021464FF08040FDF720FAB8B223
:1040C000FEF760F8641EB442F4DA59E0B5420DDA46
:1040D0002C4608E021464FF08040FDF712FAB8B2B6
:1040E000FEF750F8641CB442F4DD0CE02C4608E006
:1040F00021464FF08040FDF704FAB8B2FEF742F8CF
:10410000641EB442F4DA3BE0B5420DDA2C4608E016
:1041100021464FF08040FDF7F6F9B8B2FEF732F8CD
:10412000641CB442F4DD0CE02C4608E021464FF05C
:104130008040FDF7E8F9B8B2FEF724F8641EB442F7
:10414000F4DA1DE0B5420DDA2C4608E021464FF0C6
:104150008040FDF7DAF9B8B2FEF714F8641CB442F7
:10416000F4DD0CE02C4608E021464FF08040FDF7DE
:10417000CCF9B8B2FEF706F8641EB442F4DA00BF18
:1041800000BFBDE8F0872DE9F04707468846914615
:10419000F8B2FFF7B8FE054608F0FF00FFF7B3FEE0
:1041A0000646B5421DDA2C4618E021464FF0804005
:1041B000FDF7A5F921464FF08040FDF7A2F9214611
:1041C0004FF08040FDF79FF921464FF08040FDF70A
:1041D0009CF91FFA89F0FDF7D5FF641CB442E4DDB9
:1041E00018E02C4614E021464FF08040FDF787F997
:1041F00021464FF08040FDF784F921464FF0804082
:10420000FDF781F921464FF08040FDF77EF9641EED
:10421000B442E8DABDE8F0872DE9F0472DED088BD0
:10422000B0EE408AF0EE608AB0EE419AF0EE619A0C
:104230009FED6B0A28EE000A10EE101A084602F0F5
:104240004CFB41EC1B0B9FED670B53EC102B02F06A
:1042500090FA41EC1A0B02F008FB04469FED600A4D
:1042600028EE800A10EE101A084602F036FB41ECE8
:104270001B0B9FED5C0B53EC102B02F07AFA41EC18
:104280001A0B02F0F2FA05469FED550A29EE000AD4
:1042900010EE101A084602F020FB41EC1B0B9FEDBC
:1042A000510B53EC102B02F064FA41EC1A0B02F0A4
:1042B000DCFA06469FED4A0A29EE800A10EE101A33
:1042C000084602F00AFB41EC1B0B9FED460B53EC3A
:1042D000102B02F04EFA41EC1A0B02F0C6FA074618
:1042E000002C0EDD2820FFF70EFE8146E0B2FFF71E
:1042F0000AFE09EB000841464FF08040FDF7FFF849
:104300000DE02820FFF7FFFD8146E0B2FFF7FBFD3F
:10431000A9EB000841464FF08040FDF7F0F8002D72
:104320000EDD8F20FFF7EFFD8146E8B2FFF7EBFDD2
:1043300009EB000841464FF08040FDF7E2F80DE040
:104340008F20FFF7E0FD8146E8B2FFF7DCFDA9EB27
:10435000000841464FF08040FDF7D3F8002E0EDDF7
:104360008520FFF7D0FD8146F0B2FFF7CCFD09EBC9
:10437000000841464FF08040FDF7C5F80DE085206C
:10438000FFF7C1FD8146F0B2FFF7BDFDA9EB0008C4
:1043900041464FF08040FDF7B6F8002F0EDD282093
:1043A000FFF7B1FD8146F8B2FFF7ADFD09EB00085C
:1043B00041464FF08040FDF7A8F80DE02820FFF7B8
:1043C000A2FD8146F8B2FFF79EFDA9EB0008414629
:1043D0004FF08040FDF799F8BDEC088BBDE8F08701
:1043E000000034436F1283C0CA21094030B589B040
:1043F00004460D4601210220FCF7DBFC01210220CE
:10440000FCF78EFC022204218B48FCF776FA02228C
:1044100005218948FCF771FA3020019002208DF8BF
:10442000080000208DF80A0001208DF80B0001A97A
:104430008148FCF7D7F9ADF8185007940020ADF883
:104440001A00ADF8200006A97C48FCF76AFE00239C
:104450001A4603217948FDF7D8FB03A8FDF76FFA48
:104460000620ADF8140003A97448FDF731FA0121C4
:104470007248FDF70BFB012211467048FDF7F2FA76
:1044800000216E48FCF796FE01216C48FCF7D2FE35
:1044900009B030BD30B589B004460D460121042075
:1044A000FCF787FC01210820FCF73AFC02220C21D2
:1044B0006348FCF722FA02220D216148FCF71DFA3D
:1044C0004FF44050019002208DF8080000208DF834
:1044D0000A0001208DF80B0001A95948FCF782F968
:1044E000ADF8185007940020ADF81A00ADF8200080
:1044F00006A95448FCF715FE00231A46032151482B
:10450000FDF783FB03A8FDF71AFA0620ADF81400A7
:1045100003A94C48FDF7DCF901214A48FDF7B6FA3A
:10452000012211464748FDF79DFA00214548FCF756
:1045300041FE01214348FCF77DFE09B030BD3F48F4
:104540002430006800B200EE100AB8EEC00A3E48FF
:1045500080ED000A3B482430006800B200EE100AEB
:10456000B8EEC00A384880ED010A002033492431F2
:104570000860344924310860704700B5F0EE400A05
:10458000FFF7DDFF304890ED000A9FED301AC0EED6
:10459000011A9FED2F0A21EE800A9FED2E1A20EEC0
:1045A000010A80ED040A90ED010A9FED281AC0EE81
:1045B000011A9FED270A21EE800A9FED261A20EEB0
:1045C000010A80ED050A90ED040AB1EE400A80EE82
:1045D000201A80ED021A90ED050AB1EE400A80EE35
:1045E000201A80ED031A00BD00B5FFF7A8FF16489A
:1045F000D0ED000A184890ED000AB8EEC00A30EE7F
:10460000800ABDEEC00A80ED000A0F48D0ED010A15
:10461000124890ED000AB8EEC00A30EE800ABDEEF6
:10462000C00A80ED000A0C4800680D4948600B483C
:104630000068C86000BD00000004024000040040A3
:10464000000C02400008004028030020000019452B
:10465000C3F54840CDCCCC40180100201C010020FF
:10466000180300201CB501210846FCF759FB4FF444
:104670004C70009000208DF8040003208DF8050098
:1046800000208DF8070069460A48FCF7ABF81CBD0E
:104690000146062901D00A2901D1012070470429C9
:1046A00003D0082901D00B2901D10220F6E7002010
:1046B000F4E70000000002401CB501211020FCF7C7
:1046C0002FFB0F20009000208DF8040003208DF8B0
:1046D000050001208DF807006946FE48FCF782F8C6
:1046E0001CBD10B5044614B10120FB490870FA48FE
:1046F000007858B3F948006858B1F848001D0068C0
:1047000038B1F6480830006818B1F4480C30006839
:10471000E0B90A20FDF736FD0020EF490870EF48A8
:10472000006808B9012010BDEC48001D006808B9F8
:104730000220F8E7E9480830006808B90320F2E7EA
:10474000E6480C300068B0B90420ECE7E3480068A4
:10475000012810D1E148001D006801280BD1DF4875
:1047600008300068012806D1DC480C3000680128B8
:1047700001D1D94908700020D5E710B5044614B11D
:104780000120D7490870D648007858B3D34800684C
:1047900058B1D248001D006838B1D04808300068D0
:1047A00018B1CE480C300068E0B90A20FDF7EAFCE9
:1047B0000020CB490870C948006808B9012010BD25
:1047C000C648001D006808B90220F8E7C348083051
:1047D000006808B90320F2E7C0480C300068B0B99F
:1047E0000420ECE7BD480068012810D1BB48001D3B
:1047F000006801280BD1B94808300068012806D1AB
:10480000B6480C300068012801D1B5490870002075
:10481000D5E710B5044614B10120B2490870B1487B
:10482000007858B3AD48006858B1AC48001D006826
:1048300038B1AA480830006818B1A8480C300068A0
:10484000E0B90A20FDF79EFC0020A6490870A348A5
:10485000006808B9012010BDA048001D006808B913
:104860000220F8E79D480830006808B90320F2E705
:104870009A480C300068B0B90420ECE7974800680B
:10488000012810D19548001D006801280BD19348DC
:1048900008300068012806D190480C3000680128D3
:1048A00001D1904908700020D5E71CB501200823EC
:1048B0008DA200210090622000F09DFD01200823C0
:1048C0008AA2002100906C2000F095FD01200821B3
:1048D0000346CDE90010864800210268742000F0EC
:1048E000BAFD012008210323CDE9001081480A21E7
:1048F0000268602000F0AFFD012008210323CDE90C
:1049000000107D4814210268602000F0A4FD012001
:1049100008210423CDE9001078481E210268602098
:1049200000F0DFFD012008210423CDE900107448C8
:1049300028210268602000F0D4FD0020FFF7D1FE9E
:10494000022815D16A480068401C69490860084679
:104950000068082801DD00200860012008210346C6
:10496000CDE90010624800210268742000F073FD58
:104970005F480068062848D2DFE800F04703488D0A
:10498000EBFE0020FFF7F9FE03281AD15949096808
:1049900001F12300282385228F21FFF7D4FA01207B
:1049A0000821CDE900105348006800F123020323D9
:1049B0000A21602000F04FFD4E480068401C4D4920
:1049C00008600020FFF725FF04281ED14A49096826
:1049D000C1F16401C1F12300282385228F21FFF753
:1049E000B2FA01200821CDE9001043480068C0F167
:1049F0006400C0F1230203231421602000F02BFD8A
:104A00003D480068401E3C49086023E10020FFF754
:104A1000B4FE03281AD13748006800F18F0128231B
:104A200085222320FFF78FFA01200821CDE900100D
:104A30003048006800F18F0203230A216C2000F047
:104A40000AFD2C480068401C2A4908600020FFF736
:104A5000E0FE04281ED128480068C0F16400C0F1BF
:104A60008F01282385222320FFF76DFA01200821DA
:104A7000CDE9001020480068C0F16400C0F18F0249
:104A800003230A216C2000F0E6FC1B480068401E4E
:104A900019490860DEE00020FFF76FFE032833D1DC
:104AA0001448006800F1850228238F212320FFF796
:104AB0004AFA01200821CDE900100E48006800F1F3
:104AC000850203230A216C2000F0C5FC0948006818
:104AD000401C17E00010024020010020000242426A
:104AE0002101002022010020530000003A000000B4
:104AF000280100202C01002030010020340100207A
:104B000038010020544908600020FFF782FE042885
:104B10001ED152480068C0F16400C0F1850228230C
:104B20008F212320FFF70FFA01200821CDE9001083
:104B30004A480068C0F16400C0F1850203230A21DD
:104B40006C2000F088FC45480068401E434908601E
:104B500080E00020FFF711FE03281CD13E480068CA
:104B600000F1280385228F212320FFF7ECF9012093
:104B70000821CDE9001000E032E03748006800F17C
:104B8000280203230A216C2000F065FC32480068EB
:104B9000401C314908600020FFF73BFE04281ED16D
:104BA0002E480068C0F16400C0F1280385228F21DF
:104BB0002320FFF7C8F901200821CDE9001027487C
:104BC0000068C0F16400C0F1280203230A216C20B0
:104BD00000F041FC21480068401E2049086039E08F
:104BE0000020FFF7CAFD032816D11D4900231A46ED
:104BF00008681946FDF7BCFC012008210423CDE913
:104C0000001017480A210268602000F06AFC14486E
:104C100000683230124908600020FFF7FAFD0428CE
:104C200017D110490968484200231A461946FDF772
:104C30009FFC012008210423CDE9001009480A2126
:104C400002686C2000F04DFC0648006832380549C7
:104C5000086000BF00BF1CBD2C01002030010020F7
:104C600034010020380100201CB501210420FCF78C
:104C700057F842F23000009001208DF80400002027
:104C80008DF8060003208DF8050002208DF807003E
:104C900069460248FBF7A6FD1CBD00000008024063
:104CA0007FB505460C4601212020FCF782F80295CD
:104CB000ADF804400020ADF80600ADF80C0001A9E5
:104CC0009C48FCF72EFA012211469A48FCF7CAFECE
:104CD00001219848FCF7AEFA37208DF8000001203A
:104CE0008DF801008DF802008DF803006846FBF78F
:104CF00088FC7FBD10B52DED028B82B001218D485F
:104D0000FCF7C7FE01287DD1FFF76EFC8A49486891
:104D1000002801DB014600E04142884A11608649D3
:104D2000C868002801DB014600E04142844A116066
:104D3000FDF710FE8348B0F9040000EE100AB8EE4B
:104D4000C00ADFED810A80EE201A9FED800A21EE75
:104D5000000ADFED7F0A20EE200ABDEEC00A10EE49
:104D6000104A0120082105232246CDE90010002128
:104D70002D2000F0B6FB7749086800EBD071491090
:104D8000A0EB410119B1734909680B2920D16D4885
:104D9000B0F9040000EE100AB8EEC00ADFED6A0AAE
:104DA00080EE201A9FED690A21EE000AB0EE408ADB
:104DB000F0EE481AB0EE001ADFED670A9FED640AC4
:104DC000FDF74CFBBDEEC00A644880ED000A21E00F
:104DD0005C48B0F9040000EE100AF8EEC00A9FED3E
:104DE0005A1A80EE810ADFED590A20EE200AB0EE51
:104DF000408AF0EE481AB2EE041AF7EE000AB2EE5C
:104E00000E0A00E055E0FDF729FBBDEEC00A53484D
:104E100080ED000A01200821CDE9001050484268C9
:104E200001230021084600F016FB01200821CDE9EE
:104E300000104C48426801230A21002000F00BFBBF
:104E4000012008210346CDE90010474802681421DB
:104E5000002000F000FB00F010F93E480068022836
:104E600003D03C48006806280BD101F0FFF83F480A
:104E70000068012805D13E48006810B901203D496D
:104E8000086034480068042807D0324800680828C1
:104E900003D0304800680B280BD101F0DAF9334811
:104EA0000068012805D13248006810B90120314955
:104EB000086001211F48FCF7FDFD02B0BDEC028B2C
:104EC00010BD7FB505460C4601218020FBF771FF20
:104ED0000295ADF804400020ADF80600ADF80C00D6
:104EE00001A92548FCF71DF9012211462248FCF7CB
:104EF000B9FD01212048FCF79DF92C208DF8000018
:104F000002208DF801008DF8020001208DF80300C9
:104F10006846FBF776FB7FBD10B501211648FCF70C
:104F2000B8FD012801D1FEF71EFC01211248FCF753
:104F3000C1FD10BD00140040180300203C010020FA
:104F4000400100209C010020000000470000344385
:104F50000000C84200000020CDCCCC3D4401002020
:104F6000880A0020180C0020700100207801002021
:104F70001802404248010020001C004070B5044661
:104F80000E462EB14FF40051F748FBF7A7FC04E0A2
:104F90004FF40051F448FBF7A3FC4FF48051F24862
:104FA000FBF79EFC00251BE04FF40041EE48FBF7A9
:104FB00097FC04F0800028B14FF48041EA48FBF7E9
:104FC0008DFC04E04FF48041E748FBF789FC4FF487
:104FD0000041E548FBF782FC6006040E681CC5B280
:104FE000082DE1DB4FF48051DF48FBF777FC4FF4ED
:104FF0000051DD48FBF772FC70BD10B504461CB9CA
:105000000021A620FFF7BAFF012C03D10021A72021
:10501000FFF7B4FF10BD10B504463CB90021C8200D
:10502000FFF7ACFF0021A120FFF7A8FF012C07D15B
:105030000021C020FFF7A2FF0021A020FFF79EFF64
:1050400010BD10B500218D20FFF798FF002114201E
:10505000FFF794FF0021AF20FFF790FF10BD10B5C0
:1050600000218D20FFF78AFF00211020FFF786FF27
:105070000021AE20FFF782FF10BD70B500241CE0B8
:1050800004F1B001C8B20021FFF778FF0021084603
:10509000FFF774FF00211020FFF770FF002508E0E4
:1050A000B24901EBC501085D0121FFF767FF681CEC
:1050B000C5B2802DF4DB601CC4B2082CE0DB70BDEF
:1050C00070B500240CE0002506E00020A74901EBA4
:1050D000C5010855681CC5B2802DF6DB601CC4B242
:1050E000082CF0DBFFF7C9FF70BDF0B514460B4686
:1050F000CF1701EB5777C7F3C702CF1701EB5777ED
:10510000FF10A1EBC707FEB20123B340DDB24CB1E3
:10511000964B03EBC0039B5C2B43944F07EBC007FC
:10512000BB541AE0914B03EBC0039B5CDB438F4FF6
:1051300007EBC007BB548D4B03EBC0039B5C2B43B9
:105140008A4F07EBC007BB54884B03EBC0039B5C43
:10515000DB43864F07EBC007BB54F0BD2DE9FF4F83
:1051600084B081468A460020029083460698A0EBD0
:1051700009040798A0EB0A06CDF80490CDF800A02A
:10518000002C01DD012705E00CB9002702E04FF0FB
:10519000FF376442002E02DD4FF0010806E016B929
:1051A0004FF0000802E04FF0FF386642B44201DDE4
:1051B000254600E03546002003901EE0009AD1B25B
:1051C000019AD0B2119AFFF790FF02982044029002
:1051D000B3440298A84205DD0298401B0290019852
:1051E00038440190AB4504DDABEB050B009840441F
:1051F00000900398401C80B20390691C0398884279
:10520000DCDB08B0BDE8F08F2DE9F04306460F4621
:1052100090460025444643E03A1BD1B27219D0B201
:105220000122FFF762FF3A1BD1B2721BD0B20122FA
:10523000FFF75BFF3A19D1B2721BD0B20122FFF720
:1052400054FF3A19D1B27219D0B20122FFF74DFFC3
:105250007A19D1B23219D0B20122FFF746FF7A1B78
:10526000D1B23219D0B20122FFF73FFF7A1BD1B27F
:10527000321BD0B20122FFF738FF7A19D1B2321BAC
:10528000D0B20122FFF731FF6D1C05FB05F004FBD6
:10529000040008FB1809B9F1000F01DD641E6D1E42
:1052A0006000604308FB08F18842B5DABDE8F0838E
:1052B0002DE9FE4F0746884692461C460197CDF8D9
:1052C0000080082C02D14FF006091FE02046E317AA
:1052D00004EB5373DB1021464FEAE47C04EB5C7C67
:1052E0004FEAEC0CA4EBCC0CBCF1000F02D04FF059
:1052F000010C01E04FF0000C6344224604EBD27C29
:105300004FEA6C0C03FB0CF303F0FF09AAF1200039
:10531000C6B200256BE0082C07D106EB4600144905
:1053200001EB400010F805B02AE00C2C07D106EB89
:105330004600104901EB800010F805B020E0102C69
:1053400005D10D4800EB061010F805B018E0182C38
:1053500007D106EBC600094901EB800010F805B043
:105360000EE0BDE8FE8F0000000402404003002074
:10537000D46B0008FC6D00087072000860780008AB
:10538000002002901CE00BF0010028B14146384695
:105390000C9AFFF7AAFE09E00C9808B9012000E07A
:1053A0000020024641463846FFF79FFE4FEA6B0B4E
:1053B00008F1010000F0FF080298401CC0B2029002
:1053C00002980828DFDB781CC7B2082C0BD004EB4E
:1053D000D4714A100199791A8A4204D1019F009828
:1053E0000830C0B20090DDF80080681CC5B24D45A1
:1053F00091DB00BFB5E72DE9F84106460F4614469C
:105400001D46DDF81C8013E0CDF8008022782B4685
:1054100039463046FFF74CFF082D02D1B01DC6B209
:1054200005E0284605EBD07106EB6101CEB2641CA5
:105430002078202802DB20787E28E5DDBDE8F88191
:1054400010B50246012000E050430B1EA1F10104FB
:10545000E1B2F9D110BD2DE9FF4F82B00646914669
:105460001F46DDE90F4A4FF0000B082C01D14FF029
:10547000020B002530E0781B401EC1B20A20FFF766
:10548000DFFFB9FBF0F00A21B0FBF1F201FB1208DB
:10549000B8F1000F0ED104EBD4710BEB610101FBED
:1054A0000561C8B223463022CDE900A40399FFF775
:1054B000FFFE0FE004EBD4710BEB610101FB056112
:1054C000C8B208F13001CAB22346CDE900A403995D
:1054D000FFF7EEFE681CC5B2BD42CCDB06B0BDE8EE
:1054E000F08F2DE9FC430546884616469946DDE9CE
:1054F0000974002E10DA3B46F9A241462846009472
:10550000FFF779FF691DC8B24B4672424146CDE9AB
:105510000074FFF7A0FF0FE03B46F2A24146284689
:105520000094FFF768FF691DC8B24B4632464146FA
:10553000CDE90074FFF78FFFBDE8FC832DE9FF4F35
:105540002DED020B84B0814690461F46DDE91345E0
:105550004FF0000A00200390002609F1070000F038
:10556000FF0A204604EBD071491001FB08A1491C39
:10557000CEB204EBD07106EB6101C9B20391B5EE76
:10558000C00AF1EE10FA0FD22346D5A20095484684
:105590000799FFF730FFF1EE400A9FEDD31A60EE56
:1055A000810AB0EE600A0CE02346CEA20095484680
:1055B0000799FFF720FFDFEDCC0A60EE200AB0EE7E
:1055C000600ADFEDC90A80EE201AFCEEC10A10EE77
:1055D00090BA43465A46CDE9004550460799FFF731
:1055E0003AFF2346C1A2009530460799FFF703FF13
:1055F000012F04D0022F17D0032F14D161E0FDEE4C
:10560000C00A10EE900A642190FBF1F00A2190FB91
:10561000F1F201FB120B3B465A46CDE900450799D2
:105620000398FFF718FFD5E0FDEEC00A10EE900AD0
:105630000A2190FBF1F0642190FBF1F201FB1200D2
:105640000A2829DAA34604EBDB7106EB6101C8B234
:1056500001230022CDE900450799FFF7FCFEFDEE8E
:10566000C00A10EE900A0A2190FBF1F0642190FB31
:10567000F1F201FB120004EBDB714910022202FB84
:105680000161CDE900450290C8B2791ECBB2029A01
:105690000799FFF7E0FE13E0FDEEC00A10EE900A56
:1056A0000A2190FBF1F0642190FBF1F201FB120B57
:1056B0003B465A46CDE9004507990398FFF7CBFED4
:1056C00088E0FDEEC00A10EE900A4FF47A7190FB6C
:1056D000F1F201FB12000A2835DAA34604EBDB7174
:1056E00006EB6101C8B201230022CDE9004507990C
:1056F000FFF7B1FE04EBDB714910022202FB0161EE
:10570000C8B201230022CDE900450799FFF7A3FEA7
:10571000FDEEC00A10EE900A4FF47A7190FBF1F2A0
:1057200001FB120004EBDB714910032202FB016153
:10573000CDE900450290C8B2B91ECBB2029A0799D2
:10574000FFF789FE45E0FDEEC00A10EE900A4FF427
:105750007A7190FBF1F201FB1200642827DAA3466C
:1057600004EBDB7106EB6101C8B201230022CDE935
:1057700000450799FFF76FFEFDEEC00A10EE900A94
:105780004FF47A7190FBF1F201FB120BCDE9004569
:1057900004EBD4714910022202FB0161C8B2791EE8
:1057A000CBB25A4602940799FFF755FE11E0FDEE81
:1057B000C00A10EE900A4FF47A7190FBF1F201FBEF
:1057C000120B3B465A46CDE9004507990398FFF76F
:1057D00042FE00BF00BF0AB0BDE8F08F2DE9FC4FCC
:1057E0000746884616461C46BB46CDF80480204630
:1057F000E21704EB5272D2102146E31704EB537305
:10580000DB10A4EBC3030BB1012300E000231A4417
:10581000624392B20092002555E0102C05D1344825
:1058200000EB461010F805A01BE0182C07D106EB82
:10583000C600304901EBC00010F805A011E0202C93
:1058400005D12D4800EBC61010F805A009E0402C4A
:1058500005D12A4800EB462010F805A001E0BDE87C
:10586000FC8F4FF000091CE00AF0010028B141460E
:1058700038460B9AFFF739FC09E00B9808B901206C
:1058800000E00020024641463846FFF72EFC4FEA72
:105890006A0A08F1010000F0FF0809F1010000F0B8
:1058A000FF09B9F1080FDFDB781CC7B2A7EB0B00CB
:1058B000A04204D15F4601980830C0B20190DDF8E3
:1058C0000480681C85B200988542A6DB00BFC6E74D
:1058D00008B5804689469246002600275CE0000015
:1058E0002D0000002000000000007A442E0000007F
:1058F000BC850008BC87000804880008848800086C
:105900004FB91023324618218020CDF800A0FFF7B0
:1059100065FF701CC6B2464522D14FF0000B1AE05D
:10592000012410E000250AE0AC4800EBC400415D12
:10593000601EAA4A02EBC0004155681CC5B2082D82
:10594000F2DB601CC4B2902CECDBFFF796FB0BF192
:10595000010000F0FF0B4FEA09105845E0DC00267B
:10596000781CC7B2102F00D10027012410E00025B9
:105970000AE09A4800EBC400415D601E974A02EBC2
:10598000C0004155681CC5B2082DF2DB601CC4B2D2
:10599000902CECDBFFF771FBB2E72DE9FF4F0546DA
:1059A0000E4617461C46DDF838904FF0000A009569
:1059B000B3462046E21704EB5272D2102146E31799
:1059C00004EB5373DB10A4EBC3030BB1012300E022
:1059D00000231A44D4B24FF0000845E000200390A1
:1059E0003BE00D9810F80A0002900AF101001FFA3E
:1059F00080FA002001901DE0029800F0010028B11B
:105A00004A4631462846FFF770FB0AE0B9F1000F1D
:105A100001D1012000E00020024631462846FFF770
:105A200064FB029840100290701CC6B20198401CA2
:105A3000C0B2019001980828DEDB681CC5B200984E
:105A4000281AB84204D1009D0BF1080000F0FF0BAA
:105A50005E460398401CC0B203900398B842C0DB76
:105A600008F1010000F0FF08A045B7DBBDE8FF8F9B
:105A70001CB501210220FBF753F901212020FBF77F
:105A80004FF94FF20400009001208DF8040003202C
:105A90008DF8050000208DF8060001208DF8070024
:105AA00069464F48FAF79EFE4FF204014C48FAF758
:105AB00015FF4020009001208DF8040003208DF890
:105AC000050000208DF8060001208DF807006946CA
:105AD0004448FAF787FE40214248FAF7FFFE40218A
